{
  "_format": "hh-sol-artifact-1",
  "contractName": "EscrowFactory",
  "sourceName": "contracts/EscrowFactory.sol",
  "abi": [
    {
      "inputs": [],
      "stateMutability": "nonpayable",
      "type": "constructor"
    },
    {
      "anonymous": false,
      "inputs": [
        {
          "indexed": true,
          "internalType": "address",
          "name": "escrowAddress",
          "type": "address"
        },
        {
          "indexed": true,
          "internalType": "address",
          "name": "buyer",
          "type": "address"
        },
        {
          "indexed": true,
          "internalType": "address",
          "name": "seller",
          "type": "address"
        },
        {
          "indexed": false,
          "internalType": "string",
          "name": "itemName",
          "type": "string"
        },
        {
          "indexed": false,
          "internalType": "uint256",
          "name": "totalAmount",
          "type": "uint256"
        }
      ],
      "name": "EscrowCreated",
      "type": "event"
    },
    {
      "inputs": [
        {
          "internalType": "uint256",
          "name": "",
          "type": "uint256"
        }
      ],
      "name": "allEscrows",
      "outputs": [
        {
          "internalType": "address",
          "name": "",
          "type": "address"
        }
      ],
      "stateMutability": "view",
      "type": "function"
    },
    {
      "inputs": [
        {
          "internalType": "address",
          "name": "",
          "type": "address"
        },
        {
          "internalType": "uint256",
          "name": "",
          "type": "uint256"
        }
      ],
      "name": "buyerToEscrows",
      "outputs": [
        {
          "internalType": "address",
          "name": "",
          "type": "address"
        }
      ],
      "stateMutability": "view",
      "type": "function"
    },
    {
      "inputs": [
        {
          "internalType": "address",
          "name": "_seller",
          "type": "address"
        },
        {
          "internalType": "address",
          "name": "_arbitrator",
          "type": "address"
        },
        {
          "internalType": "uint256",
          "name": "_totalAmount",
          "type": "uint256"
        },
        {
          "internalType": "string",
          "name": "_itemName",
          "type": "string"
        },
        {
          "internalType": "uint256",
          "name": "_quantity",
          "type": "uint256"
        },
        {
          "internalType": "uint256",
          "name": "_deliveryDurationSeconds",
          "type": "uint256"
        },
        {
          "internalType": "string",
          "name": "_poCid",
          "type": "string"
        }
      ],
      "name": "createEscrow",
      "outputs": [
        {
          "internalType": "address",
          "name": "",
          "type": "address"
        }
      ],
      "stateMutability": "nonpayable",
      "type": "function"
    },
    {
      "inputs": [],
      "name": "getAllEscrows",
      "outputs": [
        {
          "internalType": "address[]",
          "name": "",
          "type": "address[]"
        }
      ],
      "stateMutability": "view",
      "type": "function"
    },
    {
      "inputs": [
        {
          "internalType": "address",
          "name": "_buyer",
          "type": "address"
        }
      ],
      "name": "getBuyerEscrows",
      "outputs": [
        {
          "internalType": "address[]",
          "name": "",
          "type": "address[]"
        }
      ],
      "stateMutability": "view",
      "type": "function"
    },
    {
      "inputs": [],
      "name": "getEscrowCount",
      "outputs": [
        {
          "internalType": "uint256",
          "name": "",
          "type": "uint256"
        }
      ],
      "stateMutability": "view",
      "type": "function"
    },
    {
      "inputs": [
        {
          "internalType": "address",
          "name": "_seller",
          "type": "address"
        }
      ],
      "name": "getSellerEscrows",
      "outputs": [
        {
          "internalType": "address[]",
          "name": "",
          "type": "address[]"
        }
      ],
      "stateMutability": "view",
      "type": "function"
    },
    {
      "inputs": [
        {
          "internalType": "address",
          "name": "",
          "type": "address"
        }
      ],
      "name": "isEscrow",
      "outputs": [
        {
          "internalType": "bool",
          "name": "",
          "type": "bool"
        }
      ],
      "stateMutability": "view",
      "type": "function"
    },
    {
      "inputs": [
        {
          "internalType": "address",
          "name": "to",
          "type": "address"
        },
        {
          "internalType": "string",
          "name": "uri",
          "type": "string"
        }
      ],
      "name": "mintPassport",
      "outputs": [],
      "stateMutability": "nonpayable",
      "type": "function"
    },
    {
      "inputs": [],
      "name": "passportContract",
      "outputs": [
        {
          "internalType": "contract MachinePassport",
          "name": "",
          "type": "address"
        }
      ],
      "stateMutability": "view",
      "type": "function"
    },
    {
      "inputs": [
        {
          "internalType": "address",
          "name": "",
          "type": "address"
        },
        {
          "internalType": "uint256",
          "name": "",
          "type": "uint256"
        }
      ],
      "name": "sellerToEscrows",
      "outputs": [
        {
          "internalType": "address",
          "name": "",
          "type": "address"
        }
      ],
      "stateMutability": "view",
      "type": "function"
    }
  ],
  "bytecode": "0x6080604052348015600f57600080fd5b50604051601a90605a565b604051809103906000f0801580156035573d6000803e3d6000fd5b50600480546001600160a01b0319166001600160a01b03929092169190911790556067565b611a9b80612fdf83390190565b612f69806100766000396000f3fe608060405234801561001057600080fd5b50600436106100a85760003560e01c806378da4ce31161007157806378da4ce3146101345780639a6ac36f14610149578063ab9027b014610151578063b166a09f14610164578063b3f197d714610197578063d466c670146101aa57600080fd5b80626e3dfe146100ad5780630d651640146100dd57806316b15135146100f05780631d3afee6146101015780632ac08bd314610114575b600080fd5b6100c06100bb366004610740565b6101bd565b6040516001600160a01b0390911681526020015b60405180910390f35b6100c06100eb3660046107e7565b6103cc565b6000546040519081526020016100d4565b6100c061010f366004610811565b610404565b61012761012236600461082a565b61042e565b6040516100d4919061084c565b610147610142366004610898565b6104a4565b005b610127610580565b6004546100c0906001600160a01b031681565b61018761017236600461082a565b60036020526000908152604090205460ff1681565b60405190151581526020016100d4565b6101276101a536600461082a565b6105e2565b6100c06101b83660046107e7565b610656565b60008033898989898989896040516101d490610672565b6101e598979695949392919061092c565b604051809103906000f080158015610201573d6000803e3d6000fd5b50905060008190506000819080600181540180825580915050600190039060005260206000200160009091909190916101000a8154816001600160a01b0302191690836001600160a01b0316021790555060016000336001600160a01b03166001600160a01b03168152602001908152602001600020819080600181540180825580915050600190039060005260206000200160009091909190916101000a8154816001600160a01b0302191690836001600160a01b03160217905550600260008b6001600160a01b03166001600160a01b03168152602001908152602001600020819080600181540180825580915050600190039060005260206000200160009091909190916101000a8154816001600160a01b0302191690836001600160a01b03160217905550600160036000836001600160a01b03166001600160a01b0316815260200190815260200160002060006101000a81548160ff021916908315150217905550896001600160a01b0316336001600160a01b0316826001600160a01b03167f5e4f2f45af0082cf4ea78dc05fc6d396ffefa4d461e5ec641c5b36267a8868498a8c6040516103b7929190610995565b60405180910390a49998505050505050505050565b600260205281600052604060002081815481106103e857600080fd5b6000918252602090912001546001600160a01b03169150829050565b6000818154811061041457600080fd5b6000918252602090912001546001600160a01b0316905081565b6001600160a01b03811660009081526002602090815260409182902080548351818402810184019094528084526060939283018282801561049857602002820191906000526020600020905b81546001600160a01b0316815260019091019060200180831161047a575b50505050509050919050565b3360009081526003602052604090205460ff166105075760405162461bcd60e51b815260206004820181905260248201527f4f6e6c7920617574686f72697a656420657363726f77732063616e206d696e74604482015260640160405180910390fd5b600480546040516378da4ce360e01b81526001600160a01b03909116916378da4ce3916105389186918691016109b7565b6020604051808303816000875af1158015610557573d6000803e3d6000fd5b505050506040513d601f19601f8201168201806040525081019061057b91906109e3565b505050565b606060008054806020026020016040519081016040528092919081815260200182805480156105d857602002820191906000526020600020905b81546001600160a01b031681526001909101906020018083116105ba575b5050505050905090565b6001600160a01b038116600090815260016020908152604091829020805483518184028101840190945280845260609392830182828015610498576020028201919060005260206000209081546001600160a01b0316815260019091019060200180831161047a5750505050509050919050565b600160205281600052604060002081815481106103e857600080fd5b612537806109fd83390190565b80356001600160a01b038116811461069657600080fd5b919050565b634e487b7160e01b600052604160045260246000fd5b600082601f8301126106c257600080fd5b813567ffffffffffffffff8111156106dc576106dc61069b565b604051601f8201601f19908116603f0116810167ffffffffffffffff8111828210171561070b5761070b61069b565b60405281815283820160200185101561072357600080fd5b816020850160208301376000918101602001919091529392505050565b600080600080600080600060e0888a03121561075b57600080fd5b6107648861067f565b96506107726020890161067f565b955060408801359450606088013567ffffffffffffffff81111561079557600080fd5b6107a18a828b016106b1565b9450506080880135925060a0880135915060c088013567ffffffffffffffff8111156107cc57600080fd5b6107d88a828b016106b1565b91505092959891949750929550565b600080604083850312156107fa57600080fd5b6108038361067f565b946020939093013593505050565b60006020828403121561082357600080fd5b5035919050565b60006020828403121561083c57600080fd5b6108458261067f565b9392505050565b602080825282518282018190526000918401906040840190835b8181101561088d5783516001600160a01b0316835260209384019390920191600101610866565b509095945050505050565b600080604083850312156108ab57600080fd5b6108b48361067f565b9150602083013567ffffffffffffffff8111156108d057600080fd5b6108dc858286016106b1565b9150509250929050565b6000815180845260005b8181101561090c576020818501810151868301820152016108f0565b506000602082860101526020601f19601f83011685010191505092915050565b6001600160a01b0389811682528881166020830152871660408201526060810186905261010060808201819052600090610968908301876108e6565b8560a08401528460c084015282810360e084015261098681856108e6565b9b9a5050505050505050505050565b6040815260006109a860408301856108e6565b90508260208301529392505050565b6001600160a01b03831681526040602082018190526000906109db908301846108e6565b949350505050565b6000602082840312156109f557600080fd5b505191905056fe608060405234801561001057600080fd5b5060405161253738038061253783398101604081905261002f91610366565b60016000556001600160a01b03881661007f5760405162461bcd60e51b815260206004820152600d60248201526c24b73b30b634b210313abcb2b960991b60448201526064015b60405180910390fd5b6001600160a01b0387166100c65760405162461bcd60e51b815260206004820152600e60248201526d24b73b30b634b21039b2b63632b960911b6044820152606401610076565b6000851161010b5760405162461bcd60e51b81526020600482015260126024820152710416d6f756e74206d757374206265203e20360741b6044820152606401610076565b6000831161015b5760405162461bcd60e51b815260206004820152601460248201527f5175616e74697479206d757374206265203e20300000000000000000000000006044820152606401610076565b6000821161019e5760405162461bcd60e51b815260206004820152601060248201526f24b73b30b634b210323ab930ba34b7b760811b6044820152606401610076565b600180546001600160a01b03808b166001600160a01b031992831617909255600280548a841690831617905560038054928916928216929092179091556004805490911633179055600585905560006006556008859055600961020185826104a9565b50600a8390556102118242610567565b600b55600e61022082826104a9565b506010805460ff60301b191690556040516001600160a01b0380891691908a16907fce1e6bf60de0cb83b0dc94c84bb59699ad0638667144f8d343087a248d77d648906102729030908a90879061058e565b60405180910390a350505050505050506105d7565b80516001600160a01b038116811461029e57600080fd5b919050565b634e487b7160e01b600052604160045260246000fd5b60005b838110156102d45781810151838201526020016102bc565b50506000910152565b600082601f8301126102ee57600080fd5b81516001600160401b03811115610307576103076102a3565b604051601f8201601f19908116603f011681016001600160401b0381118282101715610335576103356102a3565b60405281815283820160200185101561034d57600080fd5b61035e8260208301602087016102b9565b949350505050565b600080600080600080600080610100898b03121561038357600080fd5b61038c89610287565b975061039a60208a01610287565b96506103a860408a01610287565b60608a015160808b015191975095506001600160401b038111156103cb57600080fd5b6103d78b828c016102dd565b60a08b015160c08c015160e08d0151929750909550935090506001600160401b0381111561040457600080fd5b6104108b828c016102dd565b9150509295985092959890939650565b600181811c9082168061043457607f821691505b60208210810361045457634e487b7160e01b600052602260045260246000fd5b50919050565b601f8211156104a457806000526020600020601f840160051c810160208510156104815750805b601f840160051c820191505b818110156104a1576000815560010161048d565b50505b505050565b81516001600160401b038111156104c2576104c26102a3565b6104d6816104d08454610420565b8461045a565b6020601f82116001811461050a57600083156104f25750848201515b600019600385901b1c1916600184901b1784556104a1565b600084815260208120601f198516915b8281101561053a578785015182556020948501946001909201910161051a565b50848210156105585786840151600019600387901b60f8161c191681555b50505050600190811b01905550565b8082018082111561058857634e487b7160e01b600052601160045260246000fd5b92915050565b60018060a01b038416815282602082015260606040820152600082518060608401526105c18160808501602087016102b9565b601f01601f191691909101608001949350505050565b611f51806105e66000396000f3fe6080604052600436106101f25760003560e01c80636cc6cde11161010d578063a50a1fe6116100a0578063c45a01551161006f578063c45a01551461050e578063eda5998f1461052e578063eef49ee314610543578063f439a3c31461055d578063ff70a1621461057257600080fd5b8063a50a1fe6146104a4578063ba446ae9146104ba578063bbdfbfba146104d9578063bcf53258146104f957600080fd5b806389e1e82a116100dc57806389e1e82a146104375780639394acb5146104575780639d9a7fe91461046d5780639e7d9d281461048e57600080fd5b80636cc6cde1146103da5780636daa2d44146103fa5780637150d8ae1461040f5780637f6762191461042f57600080fd5b8063416af8df116101855780635e10177b116101545780635e10177b14610378578063619d26711461038d57806361b60f6b146103a2578063646ce5a8146103c557600080fd5b8063416af8df14610323578063526ff16f1461033857806356e444c71461034d57806357549eb01461036257600080fd5b8063200d2ed2116101c1578063200d2ed2146102a65780632b68bb2d146102d45780633d3ac5b6146102eb57806340401fea1461030157600080fd5b80630695c46c146101fe57806308551a531461023457806317fc45e21461026c5780631a39d8ef1461029057600080fd5b366101f957005b600080fd5b34801561020a57600080fd5b5060105461021f90600160201b900460ff1681565b60405190151581526020015b60405180910390f35b34801561024057600080fd5b50600254610254906001600160a01b031681565b6040516001600160a01b03909116815260200161022b565b34801561027857600080fd5b50610282600a5481565b60405190815260200161022b565b34801561029c57600080fd5b5061028260055481565b3480156102b257600080fd5b506010546102c790600160301b900460ff1681565b60405161022b9190611a3a565b3480156102e057600080fd5b506102e9610592565b005b3480156102f757600080fd5b5061028260075481565b34801561030d57600080fd5b506103166106a9565b60405161022b9190611aa8565b34801561032f57600080fd5b50610316610737565b34801561034457600080fd5b50610316610744565b34801561035957600080fd5b506102e9610751565b34801561036e57600080fd5b50610282600b5481565b34801561038457600080fd5b506102e96109a4565b34801561039957600080fd5b506102e9610bc4565b3480156103ae57600080fd5b5060105461021f9065010000000000900460ff1681565b3480156103d157600080fd5b50610316610c9f565b3480156103e657600080fd5b50600354610254906001600160a01b031681565b34801561040657600080fd5b506102e9610cac565b34801561041b57600080fd5b50600154610254906001600160a01b031681565b6102e9610d7c565b34801561044357600080fd5b506102e9610452366004611ac2565b611033565b34801561046357600080fd5b5061028260065481565b34801561047957600080fd5b5060105461021f906301000000900460ff1681565b34801561049a57600080fd5b50610282600f5481565b3480156104b057600080fd5b5061028260085481565b3480156104c657600080fd5b5060105461021f90610100900460ff1681565b3480156104e557600080fd5b5060105461021f9062010000900460ff1681565b34801561050557600080fd5b506102e96112e4565b34801561051a57600080fd5b50600454610254906001600160a01b031681565b34801561053a57600080fd5b506102e96114ca565b34801561054f57600080fd5b5060105461021f9060ff1681565b34801561056957600080fd5b506102e96116f2565b34801561057e57600080fd5b506102e961058d366004611b89565b61185b565b6001546001600160a01b031633146105c55760405162461bcd60e51b81526004016105bc90611bf2565b60405180910390fd5b60105460ff16156106095760405162461bcd60e51b815260206004820152600e60248201526d105b1c9958591e48199d5b99195960921b60448201526064016105bc565b6000601054600160301b900460ff16600781111561062957610629611a24565b146106665760405162461bcd60e51b815260206004820152600d60248201526c10d85b9b9bdd0818d85b98d95b609a1b60448201526064016105bc565b6010805460ff60301b1916660700000000000017905560405133907f127a6f1a35dab59c491a32a71869783bdb5702256f5709cb1e60f322ac1529d490600090a2565b600980546106b690611c15565b80601f01602080910402602001604051908101604052809291908181526020018280546106e290611c15565b801561072f5780601f106107045761010080835404028352916020019161072f565b820191906000526020600020905b81548152906001019060200180831161071257829003601f168201915b505050505081565b600e80546106b690611c15565b600d80546106b690611c15565b6001546001600160a01b0316331461077b5760405162461bcd60e51b81526004016105bc90611bf2565b6107836119fa565b60105462010000900460ff166107d45760405162461bcd60e51b8152602060048201526016602482015275125d195b481b9bdd081e595d0819195b1a5d995c995960521b60448201526064016105bc565b6010546301000000900460ff161561082e5760405162461bcd60e51b815260206004820152601a60248201527f436f6e747261637420616c726561647920636f6d706c6574656400000000000060448201526064016105bc565b600880546000918290556010805466ff0000ff000000191666050000010000001790556002546040519192916001600160a01b039091169083908381818185875af1925050503d80600081146108a0576040519150601f19603f3d011682016040523d82523d6000602084013e6108a5565b606091505b50509050806108f65760405162461bcd60e51b815260206004820152601c60248201527f4661696c656420746f2073656e642066696e616c207061796d656e740000000060448201526064016105bc565b600480546001546040516378da4ce360e01b81526001600160a01b03928316936378da4ce39361092b931691600e9101611c4f565b600060405180830381600087803b15801561094557600080fd5b505af1158015610959573d6000803e3d6000fd5b505050507f38485e5f70532849a6ff078e9f0b0abdb13611aa6731e1fcf542912d6980efb28260405161098e91815260200190565b60405180910390a150506109a26001600055565b565b6001546001600160a01b031633146109ce5760405162461bcd60e51b81526004016105bc90611bf2565b6109d66119fa565b601054600160201b900460ff1615610a005760405162461bcd60e51b81526004016105bc90611ced565b601054610100900460ff16610a455760405162461bcd60e51b815260206004820152600b60248201526a139bdd081cda1a5c1c195960aa1b60448201526064016105bc565b60105462010000900460ff1615610a925760405162461bcd60e51b8152602060048201526011602482015270105b1c9958591e4811195b1a5d995c9959607a1b60448201526064016105bc565b600060646005546032610aa59190611d2b565b610aaf9190611d48565b6007819055600854909150610ac5908290611d6a565b6008556010805442600f5566ff000000ff0000191666040000000100001790556002546040516000916001600160a01b03169083908381818185875af1925050503d8060008114610b32576040519150601f19603f3d011682016040523d82523d6000602084013e610b37565b606091505b5050905080610b945760405162461bcd60e51b8152602060048201526024808201527f4661696c656420746f2073656e642061667465722064656c69766572207061796044820152631b595b9d60e21b60648201526084016105bc565b6040518281527f2dfdb966e7190b3f914db51ef79ecbb965b770a4c249fa92121a9f42f6be35fa9060200161098e565b6002546001600160a01b03163314610bee5760405162461bcd60e51b81526004016105bc90611d7d565b6000601054600160301b900460ff166007811115610c0e57610c0e611a24565b14610c5b5760405162461bcd60e51b815260206004820152601f60248201527f416c7265616479206163636570746564206f7220696e2070726f67726573730060448201526064016105bc565b6010805466ffff0000000000191666010100000000001790556040517fe265a59e0d8e68fca2a95c22cc164b1922c5d69f1a31b63a5c35d59af3fa032090600090a1565b600c80546106b690611c15565b6001546001600160a01b0316331480610ccf57506002546001600160a01b031633145b610d0c5760405162461bcd60e51b815260206004820152600e60248201526d139bdd08185d5d1a1bdc9a5e995960921b60448201526064016105bc565b6010546301000000900460ff1615610d365760405162461bcd60e51b81526004016105bc90611da1565b6010805466ff00ff000000001916660600010000000017905560405133907f0b3cd97b16a08a5c77357c276d248827ad32dfd56060f7c55d6255537ba3d96290600090a2565b6001546001600160a01b03163314610da65760405162461bcd60e51b81526004016105bc90611bf2565b610dae6119fa565b60105465010000000000900460ff16610e095760405162461bcd60e51b815260206004820152601860248201527f53656c6c6572206d75737420616363657074206669727374000000000000000060448201526064016105bc565b60105460ff1615610e505760405162461bcd60e51b8152602060048201526011602482015270105b1c9958591e4819195c1bdcda5d1959607a1b60448201526064016105bc565b6005543414610e9a5760405162461bcd60e51b815260206004820152601660248201527514d95b9908195e1858dd081d1bdd185b105b5bdd5b9d60521b60448201526064016105bc565b6001601054600160301b900460ff166007811115610eba57610eba611a24565b14610f075760405162461bcd60e51b815260206004820181905260248201527f4d7573742062652061636365707465642062792073656c6c657220666972737460448201526064016105bc565b60006064600554601e610f1a9190611d2b565b610f249190611d48565b6006819055600554909150610f3a908290611d6a565b6008556010805466ff0000000000ff191666020000000000011790556002546040516000916001600160a01b03169083908381818185875af1925050503d8060008114610fa3576040519150601f19603f3d011682016040523d82523d6000602084013e610fa8565b606091505b50509050806110035760405162461bcd60e51b815260206004820152602160248201527f4661696c656420746f2073656e642070726f64756374696f6e207061796d656e6044820152601d60fa1b60648201526084016105bc565b6040518281527f9a44608bcd034a9075640dd9f85f303467fa2fb447f3220e8268ab43f8e062eb9060200161098e565b6003546001600160a01b0316331461107e5760405162461bcd60e51b815260206004820152600e60248201526d2737ba1030b93134ba3930ba37b960911b60448201526064016105bc565b6110866119fa565b601054600160201b900460ff166110cc5760405162461bcd60e51b815260206004820152600a6024820152694e6f206469737075746560b01b60448201526064016105bc565b600854806111125760405162461bcd60e51b81526020600482015260136024820152724e6f2066756e647320746f2072656c6561736560681b60448201526064016105bc565b60006008556010805464ff000000001916905581156111ed576010805466ff0000ff000000191666050000010000001790556002546040516000916001600160a01b03169083908381818185875af1925050503d8060008114611191576040519150601f19603f3d011682016040523d82523d6000602084013e611196565b606091505b50509050806111e75760405162461bcd60e51b815260206004820152601860248201527f4661696c656420746f2073656e6420746f2073656c6c6572000000000000000060448201526064016105bc565b506112a1565b6010805460ff60301b191666070000000000001790556001546040516000916001600160a01b03169083908381818185875af1925050503d8060008114611250576040519150601f19603f3d011682016040523d82523d6000602084013e611255565b606091505b505090508061129f5760405162461bcd60e51b81526020600482015260166024820152752330b4b632b2103a37903932b33ab73210313abcb2b960511b60448201526064016105bc565b505b60405182151581527f8015c5005d9ad5d85ca80d3f894f08e0159277704c54166e5cff108800fa80cd9060200160405180910390a1506112e16001600055565b50565b6002546001600160a01b0316331461130e5760405162461bcd60e51b81526004016105bc90611d7d565b601054600160201b900460ff16156113385760405162461bcd60e51b81526004016105bc90611ced565b6113406119fa565b60105462010000900460ff166113885760405162461bcd60e51b815260206004820152600d60248201526c139bdd0819195b1a5d995c9959609a1b60448201526064016105bc565b6010546301000000900460ff16156113b25760405162461bcd60e51b81526004016105bc90611da1565b600f546113c29062127500611dcc565b42116114105760405162461bcd60e51b815260206004820152601860248201527f496e7370656374696f6e20706572696f6420616374697665000000000000000060448201526064016105bc565b600880546000918290556010805466ff0000ff000000191666050000010000001790556002546040519192916001600160a01b039091169083908381818185875af1925050503d8060008114611482576040519150601f19603f3d011682016040523d82523d6000602084013e611487565b606091505b50509050806108f65760405162461bcd60e51b815260206004820152600f60248201526e151c985b9cd9995c8819985a5b1959608a1b60448201526064016105bc565b6002546001600160a01b031633146114f45760405162461bcd60e51b81526004016105bc90611d7d565b601054600160201b900460ff161561151e5760405162461bcd60e51b81526004016105bc90611ced565b6115266119fa565b601054610100900460ff1661156b5760405162461bcd60e51b815260206004820152600b60248201526a139bdd081cda1a5c1c195960aa1b60448201526064016105bc565b6010546301000000900460ff16156115955760405162461bcd60e51b81526004016105bc90611da1565b601054600160201b900460ff16156115df5760405162461bcd60e51b815260206004820152600d60248201526c556e646572206469737075746560981b60448201526064016105bc565b600b5442116116265760405162461bcd60e51b8152602060048201526013602482015272111958591b1a5b99481b9bdd081c185cdcd959606a1b60448201526064016105bc565b600880546000918290556010805466ff0000ff000000191666050000010000001790556002546040519192916001600160a01b039091169083905b60006040518083038185875af1925050503d806000811461169e576040519150601f19603f3d011682016040523d82523d6000602084013e6116a3565b606091505b50509050806116e65760405162461bcd60e51b815260206004820152600f60248201526e151c985b9cd9995c8819985a5b1959608a1b60448201526064016105bc565b50506109a26001600055565b6001546001600160a01b0316331461171c5760405162461bcd60e51b81526004016105bc90611bf2565b601054600160201b900460ff16156117465760405162461bcd60e51b81526004016105bc90611ced565b61174e6119fa565b600b5442116117955760405162461bcd60e51b8152602060048201526013602482015272111958591b1a5b99481b9bdd081c185cdcd959606a1b60448201526064016105bc565b601054610100900460ff16156117df5760405162461bcd60e51b815260206004820152600f60248201526e105b1c9958591e481cda1a5c1c1959608a1b60448201526064016105bc565b60105460ff1661181e5760405162461bcd60e51b815260206004820152600a602482015269139bdd08199d5b99195960b21b60448201526064016105bc565b600880546000909155601080546007919060ff60301b1916600160301b8302179055506001546040516000916001600160a01b0316908390611661565b6002546001600160a01b031633146118855760405162461bcd60e51b81526004016105bc90611d7d565b601054600160201b900460ff16156118af5760405162461bcd60e51b81526004016105bc90611ced565b60105460ff166118fa5760405162461bcd60e51b8152602060048201526016602482015275141c9bd91d58dd1a5bdb881b9bdd081cdd185c9d195960521b60448201526064016105bc565b601054610100900460ff16156119445760405162461bcd60e51b815260206004820152600f60248201526e105b1c9958591e481cda1a5c1c1959608a1b60448201526064016105bc565b60008151116119895760405162461bcd60e51b8152602060048201526011602482015270151c9858dada5b99c81c995c5d5a5c9959607a1b60448201526064016105bc565b600c6119958382611e2e565b50600d6119a28282611e2e565b506010805466ff00000000ff00191666030000000001001790556040517fb6462dcdfb1c84065533d5eef8ad89ff3d6755d584c1e1173765287462f2f628906119ee9084908490611eed565b60405180910390a15050565b600260005403611a1d57604051633ee5aeb560e01b815260040160405180910390fd5b6002600055565b634e487b7160e01b600052602160045260246000fd5b6020810160088310611a5c57634e487b7160e01b600052602160045260246000fd5b91905290565b6000815180845260005b81811015611a8857602081850181015186830182015201611a6c565b506000602082860101526020601f19601f83011685010191505092915050565b602081526000611abb6020830184611a62565b9392505050565b600060208284031215611ad457600080fd5b81358015158114611abb57600080fd5b634e487b7160e01b600052604160045260246000fd5b600082601f830112611b0b57600080fd5b813567ffffffffffffffff811115611b2557611b25611ae4565b604051601f8201601f19908116603f0116810167ffffffffffffffff81118282101715611b5457611b54611ae4565b604052818152838201602001851015611b6c57600080fd5b816020850160208301376000918101602001919091529392505050565b60008060408385031215611b9c57600080fd5b823567ffffffffffffffff811115611bb357600080fd5b611bbf85828601611afa565b925050602083013567ffffffffffffffff811115611bdc57600080fd5b611be885828601611afa565b9150509250929050565b6020808252600990820152682737ba10313abcb2b960b91b604082015260600190565b600181811c90821680611c2957607f821691505b602082108103611c4957634e487b7160e01b600052602260045260246000fd5b50919050565b6001600160a01b03831681526040602082015281546000908190611c7281611c15565b8060408601526001821660008114611c915760018114611cad57611ce1565b60ff1983166060870152606082151560051b8701019350611ce1565b86600052602060002060005b83811015611cd857815488820160600152600190910190602001611cb9565b87016060019450505b50919695505050505050565b6020808252600e908201526d446973707574652061637469766560901b604082015260600190565b634e487b7160e01b600052601160045260246000fd5b8082028115828204841417611d4257611d42611d15565b92915050565b600082611d6557634e487b7160e01b600052601260045260246000fd5b500490565b81810381811115611d4257611d42611d15565b6020808252600a90820152692737ba1039b2b63632b960b11b604082015260600190565b602080825260119082015270105b1c9958591e4818dbdb5c1b195d1959607a1b604082015260600190565b80820180821115611d4257611d42611d15565b601f821115611e2957806000526020600020601f840160051c81016020851015611e065750805b601f840160051c820191505b81811015611e265760008155600101611e12565b50505b505050565b815167ffffffffffffffff811115611e4857611e48611ae4565b611e5c81611e568454611c15565b84611ddf565b6020601f821160018114611e905760008315611e785750848201515b600019600385901b1c1916600184901b178455611e26565b600084815260208120601f198516915b82811015611ec05787850151825560209485019460019092019101611ea0565b5084821015611ede5786840151600019600387901b60f8161c191681555b50505050600190811b01905550565b604081526000611f006040830185611a62565b8281036020840152611f128185611a62565b9594505050505056fea26469706673582212206a441e69feb667d871148b4415fe452cd182e375ba836f76e75f8e17e8b2e78064736f6c634300081e0033a2646970667358221220e2798e726a922179fb4ce2e0d960b7f109e3e4ff6c8bae9dbd57233c92cbd1bc64736f6c634300081e0033608060405234801561001057600080fd5b50336040518060400160405280601b81526020017f496e647573747269616c204d616368696e652050617373706f72740000000000815250604051806040016040528060038152602001620494d560ec1b815250816000908161007391906101b1565b50600161008082826101b1565b5050506001600160a01b0381166100b157604051631e4fbdf760e01b81526000600482015260240160405180910390fd5b6100ba816100c0565b5061026f565b600b80546001600160a01b038381166001600160a01b0319831681179093556040519116919082907f8be0079c531659141344cd1fd0a4f28419497f9722a3daafe3b4186f6b6457e090600090a35050565b634e487b7160e01b600052604160045260246000fd5b600181811c9082168061013c57607f821691505b60208210810361015c57634e487b7160e01b600052602260045260246000fd5b50919050565b601f8211156101ac57806000526020600020601f840160051c810160208510156101895750805b601f840160051c820191505b818110156101a95760008155600101610195565b50505b505050565b81516001600160401b038111156101ca576101ca610112565b6101de816101d88454610128565b84610162565b6020601f82116001811461021257600083156101fa5750848201515b600019600385901b1c1916600184901b1784556101a9565b600084815260208120601f198516915b828110156102425787850151825560209485019460019092019101610222565b50848210156102605786840151600019600387901b60f8161c191681555b50505050600190811b01905550565b61181d8061027e6000396000f3fe608060405234801561001057600080fd5b506004361061012c5760003560e01c806370a08231116100ad578063a22cb46511610071578063a22cb46514610266578063b88d4fde14610279578063c87b56dd1461028c578063e985e9c51461029f578063f2fde38b146102b257600080fd5b806370a082311461021f578063715018a61461023257806378da4ce31461023a5780638da5cb5b1461024d57806395d89b411461025e57600080fd5b806323b872dd116100f457806323b872dd146101c05780632f745c59146101d357806342842e0e146101e65780634f6ccce7146101f95780636352211e1461020c57600080fd5b806301ffc9a71461013157806306fdde0314610159578063081812fc1461016e578063095ea7b31461019957806318160ddd146101ae575b600080fd5b61014461013f36600461129c565b6102c5565b60405190151581526020015b60405180910390f35b6101616102d6565b6040516101509190611309565b61018161017c36600461131c565b610368565b6040516001600160a01b039091168152602001610150565b6101ac6101a7366004611351565b610391565b005b6009545b604051908152602001610150565b6101ac6101ce36600461137b565b6103a0565b6101b26101e1366004611351565b610430565b6101ac6101f436600461137b565b610495565b6101b261020736600461131c565b6104b5565b61018161021a36600461131c565b61050e565b6101b261022d3660046113b8565b610519565b6101ac610561565b6101b2610248366004611463565b610575565b600b546001600160a01b0316610181565b6101616105b1565b6101ac6102743660046114c5565b6105c0565b6101ac610287366004611501565b6105cb565b61016161029a36600461131c565b6105e2565b6101446102ad36600461157d565b6105ed565b6101ac6102c03660046113b8565b61061b565b60006102d082610659565b92915050565b6060600080546102e5906115b0565b80601f0160208091040260200160405190810160405280929190818152602001828054610311906115b0565b801561035e5780601f106103335761010080835404028352916020019161035e565b820191906000526020600020905b81548152906001019060200180831161034157829003601f168201915b5050505050905090565b60006103738261067e565b506000828152600460205260409020546001600160a01b03166102d0565b61039c8282336106b7565b5050565b6001600160a01b0382166103cf57604051633250574960e11b8152600060048201526024015b60405180910390fd5b60006103dc8383336106c4565b9050836001600160a01b0316816001600160a01b03161461042a576040516364283d7b60e01b81526001600160a01b03808616600483015260248201849052821660448201526064016103c6565b50505050565b600061043b83610519565b821061046c5760405163295f44f760e21b81526001600160a01b0384166004820152602481018390526044016103c6565b506001600160a01b03919091166000908152600760209081526040808320938352929052205490565b6104b0838383604051806020016040528060008152506105cb565b505050565b60006104c060095490565b82106104e95760405163295f44f760e21b815260006004820152602481018390526044016103c6565b600982815481106104fc576104fc6115ea565b90600052602060002001549050919050565b60006102d08261067e565b60006001600160a01b038216610545576040516322718ad960e21b8152600060048201526024016103c6565b506001600160a01b031660009081526003602052604090205490565b6105696106d9565b6105736000610706565b565b600061057f6106d9565b600c80546000918261059083611616565b9190505590506105a08482610758565b6105aa8184610772565b9392505050565b6060600180546102e5906115b0565b61039c3383836107c2565b6105d68484846103a0565b61042a84848484610861565b60606102d08261098a565b6001600160a01b03918216600090815260056020908152604080832093909416825291909152205460ff1690565b6106236106d9565b6001600160a01b03811661064d57604051631e4fbdf760e01b8152600060048201526024016103c6565b61065681610706565b50565b60006001600160e01b0319821663780e9d6360e01b14806102d057506102d082610a93565b6000818152600260205260408120546001600160a01b0316806102d057604051637e27328960e01b8152600481018490526024016103c6565b6104b08383836001610ab8565b60006106d1848484610bbe565b949350505050565b600b546001600160a01b031633146105735760405163118cdaa760e01b81523360048201526024016103c6565b600b80546001600160a01b038381166001600160a01b0319831681179093556040519116919082907f8be0079c531659141344cd1fd0a4f28419497f9722a3daafe3b4186f6b6457e090600090a35050565b61039c828260405180602001604052806000815250610c8b565b600082815260066020526040902061078a8282611676565b506040518281527ff8e1a15aba9398e019f0b49df1a4fde98ee17ae345cb5f6b5e2c27f5033e8ce79060200160405180910390a15050565b6001600160a01b0382166107f457604051630b61174360e31b81526001600160a01b03831660048201526024016103c6565b6001600160a01b03838116600081815260056020908152604080832094871680845294825291829020805460ff191686151590811790915591519182527f17307eab39ab6107e8899845ad3d59bd9653f200f220920489ca2b5937696c31910160405180910390a3505050565b6001600160a01b0383163b1561042a57604051630a85bd0160e11b81526001600160a01b0384169063150b7a02906108a3903390889087908790600401611735565b6020604051808303816000875af19250505080156108de575060408051601f3d908101601f191682019092526108db91810190611772565b60015b610947573d80801561090c576040519150601f19603f3d011682016040523d82523d6000602084013e610911565b606091505b50805160000361093f57604051633250574960e11b81526001600160a01b03851660048201526024016103c6565b805181602001fd5b6001600160e01b03198116630a85bd0160e11b1461098357604051633250574960e11b81526001600160a01b03851660048201526024016103c6565b5050505050565b60606109958261067e565b50600082815260066020526040812080546109af906115b0565b80601f01602080910402602001604051908101604052809291908181526020018280546109db906115b0565b8015610a285780601f106109fd57610100808354040283529160200191610a28565b820191906000526020600020905b815481529060010190602001808311610a0b57829003601f168201915b505050505090506000610a4660408051602081019091526000815290565b90508051600003610a58575092915050565b815115610a8a578082604051602001610a7292919061178f565b60405160208183030381529060405292505050919050565b6106d184610ca2565b60006001600160e01b03198216632483248360e11b14806102d057506102d082610d16565b8080610acc57506001600160a01b03821615155b15610b8e576000610adc8461067e565b90506001600160a01b03831615801590610b085750826001600160a01b0316816001600160a01b031614155b8015610b1b5750610b1981846105ed565b155b15610b445760405163a9fbf51f60e01b81526001600160a01b03841660048201526024016103c6565b8115610b8c5783856001600160a01b0316826001600160a01b03167f8c5be1e5ebec7d5bd14f71427d1e84f3dd0314c0f7b2291e5b200ac8c7c3b92560405160405180910390a45b505b5050600090815260046020526040902080546001600160a01b0319166001600160a01b0392909216919091179055565b600080610bcc858585610d66565b90506001600160a01b038116610c2957610c2484600980546000838152600a60205260408120829055600182018355919091527f6e1540171b6c0c960b71a7020d9f60077f6af931a8bbf590da0223dacf75c7af0155565b610c4c565b846001600160a01b0316816001600160a01b031614610c4c57610c4c8185610e5f565b6001600160a01b038516610c6857610c6384610ef0565b6106d1565b846001600160a01b0316816001600160a01b0316146106d1576106d18585610f9f565b610c958383610fef565b6104b06000848484610861565b6060610cad8261067e565b506000610cc560408051602081019091526000815290565b90506000815111610ce557604051806020016040528060008152506105aa565b80610cef84611054565b604051602001610d0092919061178f565b6040516020818303038152906040529392505050565b60006001600160e01b031982166380ac58cd60e01b1480610d4757506001600160e01b03198216635b5e139f60e01b145b806102d057506301ffc9a760e01b6001600160e01b03198316146102d0565b6000828152600260205260408120546001600160a01b0390811690831615610d9357610d938184866110e7565b6001600160a01b03811615610dd157610db0600085600080610ab8565b6001600160a01b038116600090815260036020526040902080546000190190555b6001600160a01b03851615610e00576001600160a01b0385166000908152600360205260409020805460010190555b60008481526002602052604080822080546001600160a01b0319166001600160a01b0389811691821790925591518793918516917fddf252ad1be2c89b69c2b068fc378daa952ba7f163c4a11628f55a4df523b3ef91a4949350505050565b6000610e6a83610519565b600083815260086020526040902054909150808214610ebd576001600160a01b03841660009081526007602090815260408083208584528252808320548484528184208190558352600890915290208190555b5060009182526008602090815260408084208490556001600160a01b039094168352600781528383209183525290812055565b600954600090610f02906001906117be565b6000838152600a602052604081205460098054939450909284908110610f2a57610f2a6115ea565b906000526020600020015490508060098381548110610f4b57610f4b6115ea565b6000918252602080832090910192909255828152600a90915260408082208490558582528120556009805480610f8357610f836117d1565b6001900381819060005260206000200160009055905550505050565b60006001610fac84610519565b610fb691906117be565b6001600160a01b039093166000908152600760209081526040808320868452825280832085905593825260089052919091209190915550565b6001600160a01b03821661101957604051633250574960e11b8152600060048201526024016103c6565b6000611027838360006106c4565b90506001600160a01b038116156104b0576040516339e3563760e11b8152600060048201526024016103c6565b606060006110618361114b565b600101905060008167ffffffffffffffff811115611081576110816113d3565b6040519080825280601f01601f1916602001820160405280156110ab576020820181803683370190505b5090508181016020015b600019016f181899199a1a9b1b9c1cb0b131b232b360811b600a86061a8153600a85049450846110b557509392505050565b6110f2838383611223565b6104b0576001600160a01b03831661112057604051637e27328960e01b8152600481018290526024016103c6565b60405163177e802f60e01b81526001600160a01b0383166004820152602481018290526044016103c6565b60008072184f03e93ff9f4daa797ed6e38ed64bf6a1f0160401b831061118a5772184f03e93ff9f4daa797ed6e38ed64bf6a1f0160401b830492506040015b6d04ee2d6d415b85acef810000000083106111b6576d04ee2d6d415b85acef8100000000830492506020015b662386f26fc1000083106111d457662386f26fc10000830492506010015b6305f5e10083106111ec576305f5e100830492506008015b612710831061120057612710830492506004015b60648310611212576064830492506002015b600a83106102d05760010192915050565b60006001600160a01b038316158015906106d15750826001600160a01b0316846001600160a01b0316148061125d575061125d84846105ed565b806106d15750506000908152600460205260409020546001600160a01b03908116911614919050565b6001600160e01b03198116811461065657600080fd5b6000602082840312156112ae57600080fd5b81356105aa81611286565b60005b838110156112d45781810151838201526020016112bc565b50506000910152565b600081518084526112f58160208601602086016112b9565b601f01601f19169290920160200192915050565b6020815260006105aa60208301846112dd565b60006020828403121561132e57600080fd5b5035919050565b80356001600160a01b038116811461134c57600080fd5b919050565b6000806040838503121561136457600080fd5b61136d83611335565b946020939093013593505050565b60008060006060848603121561139057600080fd5b61139984611335565b92506113a760208501611335565b929592945050506040919091013590565b6000602082840312156113ca57600080fd5b6105aa82611335565b634e487b7160e01b600052604160045260246000fd5b60008067ffffffffffffffff841115611404576114046113d3565b50604051601f19601f85018116603f0116810181811067ffffffffffffffff82111715611433576114336113d3565b60405283815290508082840185101561144b57600080fd5b83836020830137600060208583010152509392505050565b6000806040838503121561147657600080fd5b61147f83611335565b9150602083013567ffffffffffffffff81111561149b57600080fd5b8301601f810185136114ac57600080fd5b6114bb858235602084016113e9565b9150509250929050565b600080604083850312156114d857600080fd5b6114e183611335565b9150602083013580151581146114f657600080fd5b809150509250929050565b6000806000806080858703121561151757600080fd5b61152085611335565b935061152e60208601611335565b925060408501359150606085013567ffffffffffffffff81111561155157600080fd5b8501601f8101871361156257600080fd5b611571878235602084016113e9565b91505092959194509250565b6000806040838503121561159057600080fd5b61159983611335565b91506115a760208401611335565b90509250929050565b600181811c908216806115c457607f821691505b6020821081036115e457634e487b7160e01b600052602260045260246000fd5b50919050565b634e487b7160e01b600052603260045260246000fd5b634e487b7160e01b600052601160045260246000fd5b60006001820161162857611628611600565b5060010190565b601f8211156104b057806000526020600020601f840160051c810160208510156116565750805b601f840160051c820191505b818110156109835760008155600101611662565b815167ffffffffffffffff811115611690576116906113d3565b6116a48161169e84546115b0565b8461162f565b6020601f8211600181146116d857600083156116c05750848201515b600019600385901b1c1916600184901b178455610983565b600084815260208120601f198516915b8281101561170857878501518255602094850194600190920191016116e8565b50848210156117265786840151600019600387901b60f8161c191681555b50505050600190811b01905550565b6001600160a01b0385811682528416602082015260408101839052608060608201819052600090611768908301846112dd565b9695505050505050565b60006020828403121561178457600080fd5b81516105aa81611286565b600083516117a18184602088016112b9565b8351908301906117b58183602088016112b9565b01949350505050565b818103818111156102d0576102d0611600565b634e487b7160e01b600052603160045260246000fdfea2646970667358221220971cf326f073d1b2b9afa21b7a22a54c6566d9448bca5c0d7846e8c8be845dd664736f6c634300081e0033",
  "linkReferences": {},
  "deployedLinkReferences": {}
}