{
  "_format": "hh-sol-artifact-1",
  "contractName": "MachinePassport",
  "sourceName": "contracts/MachinePassport.sol",
  "abi": [
    {
      "inputs": [],
      "stateMutability": "nonpayable",
      "type": "constructor"
    },
    {
      "inputs": [],
      "name": "ERC721EnumerableForbiddenBatchMint",
      "type": "error"
    },
    {
      "inputs": [
        {
          "internalType": "address",
          "name": "sender",
          "type": "address"
        },
        {
          "internalType": "uint256",
          "name": "tokenId",
          "type": "uint256"
        },
        {
          "internalType": "address",
          "name": "owner",
          "type": "address"
        }
      ],
      "name": "ERC721IncorrectOwner",
      "type": "error"
    },
    {
      "inputs": [
        {
          "internalType": "address",
          "name": "operator",
          "type": "address"
        },
        {
          "internalType": "uint256",
          "name": "tokenId",
          "type": "uint256"
        }
      ],
      "name": "ERC721InsufficientApproval",
      "type": "error"
    },
    {
      "inputs": [
        {
          "internalType": "address",
          "name": "approver",
          "type": "address"
        }
      ],
      "name": "ERC721InvalidApprover",
      "type": "error"
    },
    {
      "inputs": [
        {
          "internalType": "address",
          "name": "operator",
          "type": "address"
        }
      ],
      "name": "ERC721InvalidOperator",
      "type": "error"
    },
    {
      "inputs": [
        {
          "internalType": "address",
          "name": "owner",
          "type": "address"
        }
      ],
      "name": "ERC721InvalidOwner",
      "type": "error"
    },
    {
      "inputs": [
        {
          "internalType": "address",
          "name": "receiver",
          "type": "address"
        }
      ],
      "name": "ERC721InvalidReceiver",
      "type": "error"
    },
    {
      "inputs": [
        {
          "internalType": "address",
          "name": "sender",
          "type": "address"
        }
      ],
      "name": "ERC721InvalidSender",
      "type": "error"
    },
    {
      "inputs": [
        {
          "internalType": "uint256",
          "name": "tokenId",
          "type": "uint256"
        }
      ],
      "name": "ERC721NonexistentToken",
      "type": "error"
    },
    {
      "inputs": [
        {
          "internalType": "address",
          "name": "owner",
          "type": "address"
        },
        {
          "internalType": "uint256",
          "name": "index",
          "type": "uint256"
        }
      ],
      "name": "ERC721OutOfBoundsIndex",
      "type": "error"
    },
    {
      "inputs": [
        {
          "internalType": "address",
          "name": "owner",
          "type": "address"
        }
      ],
      "name": "OwnableInvalidOwner",
      "type": "error"
    },
    {
      "inputs": [
        {
          "internalType": "address",
          "name": "account",
          "type": "address"
        }
      ],
      "name": "OwnableUnauthorizedAccount",
      "type": "error"
    },
    {
      "anonymous": false,
      "inputs": [
        {
          "indexed": true,
          "internalType": "address",
          "name": "owner",
          "type": "address"
        },
        {
          "indexed": true,
          "internalType": "address",
          "name": "approved",
          "type": "address"
        },
        {
          "indexed": true,
          "internalType": "uint256",
          "name": "tokenId",
          "type": "uint256"
        }
      ],
      "name": "Approval",
      "type": "event"
    },
    {
      "anonymous": false,
      "inputs": [
        {
          "indexed": true,
          "internalType": "address",
          "name": "owner",
          "type": "address"
        },
        {
          "indexed": true,
          "internalType": "address",
          "name": "operator",
          "type": "address"
        },
        {
          "indexed": false,
          "internalType": "bool",
          "name": "approved",
          "type": "bool"
        }
      ],
      "name": "ApprovalForAll",
      "type": "event"
    },
    {
      "anonymous": false,
      "inputs": [
        {
          "indexed": false,
          "internalType": "uint256",
          "name": "_fromTokenId",
          "type": "uint256"
        },
        {
          "indexed": false,
          "internalType": "uint256",
          "name": "_toTokenId",
          "type": "uint256"
        }
      ],
      "name": "BatchMetadataUpdate",
      "type": "event"
    },
    {
      "anonymous": false,
      "inputs": [
        {
          "indexed": false,
          "internalType": "uint256",
          "name": "_tokenId",
          "type": "uint256"
        }
      ],
      "name": "MetadataUpdate",
      "type": "event"
    },
    {
      "anonymous": false,
      "inputs": [
        {
          "indexed": true,
          "internalType": "address",
          "name": "previousOwner",
          "type": "address"
        },
        {
          "indexed": true,
          "internalType": "address",
          "name": "newOwner",
          "type": "address"
        }
      ],
      "name": "OwnershipTransferred",
      "type": "event"
    },
    {
      "anonymous": false,
      "inputs": [
        {
          "indexed": true,
          "internalType": "address",
          "name": "from",
          "type": "address"
        },
        {
          "indexed": true,
          "internalType": "address",
          "name": "to",
          "type": "address"
        },
        {
          "indexed": true,
          "internalType": "uint256",
          "name": "tokenId",
          "type": "uint256"
        }
      ],
      "name": "Transfer",
      "type": "event"
    },
    {
      "inputs": [
        {
          "internalType": "address",
          "name": "to",
          "type": "address"
        },
        {
          "internalType": "uint256",
          "name": "tokenId",
          "type": "uint256"
        }
      ],
      "name": "approve",
      "outputs": [],
      "stateMutability": "nonpayable",
      "type": "function"
    },
    {
      "inputs": [
        {
          "internalType": "address",
          "name": "owner",
          "type": "address"
        }
      ],
      "name": "balanceOf",
      "outputs": [
        {
          "internalType": "uint256",
          "name": "",
          "type": "uint256"
        }
      ],
      "stateMutability": "view",
      "type": "function"
    },
    {
      "inputs": [
        {
          "internalType": "uint256",
          "name": "tokenId",
          "type": "uint256"
        }
      ],
      "name": "getApproved",
      "outputs": [
        {
          "internalType": "address",
          "name": "",
          "type": "address"
        }
      ],
      "stateMutability": "view",
      "type": "function"
    },
    {
      "inputs": [
        {
          "internalType": "address",
          "name": "owner",
          "type": "address"
        },
        {
          "internalType": "address",
          "name": "operator",
          "type": "address"
        }
      ],
      "name": "isApprovedForAll",
      "outputs": [
        {
          "internalType": "bool",
          "name": "",
          "type": "bool"
        }
      ],
      "stateMutability": "view",
      "type": "function"
    },
    {
      "inputs": [
        {
          "internalType": "address",
          "name": "to",
          "type": "address"
        },
        {
          "internalType": "string",
          "name": "uri",
          "type": "string"
        }
      ],
      "name": "mintPassport",
      "outputs": [
        {
          "internalType": "uint256",
          "name": "",
          "type": "uint256"
        }
      ],
      "stateMutability": "nonpayable",
      "type": "function"
    },
    {
      "inputs": [],
      "name": "name",
      "outputs": [
        {
          "internalType": "string",
          "name": "",
          "type": "string"
        }
      ],
      "stateMutability": "view",
      "type": "function"
    },
    {
      "inputs": [],
      "name": "owner",
      "outputs": [
        {
          "internalType": "address",
          "name": "",
          "type": "address"
        }
      ],
      "stateMutability": "view",
      "type": "function"
    },
    {
      "inputs": [
        {
          "internalType": "uint256",
          "name": "tokenId",
          "type": "uint256"
        }
      ],
      "name": "ownerOf",
      "outputs": [
        {
          "internalType": "address",
          "name": "",
          "type": "address"
        }
      ],
      "stateMutability": "view",
      "type": "function"
    },
    {
      "inputs": [],
      "name": "renounceOwnership",
      "outputs": [],
      "stateMutability": "nonpayable",
      "type": "function"
    },
    {
      "inputs": [
        {
          "internalType": "address",
          "name": "from",
          "type": "address"
        },
        {
          "internalType": "address",
          "name": "to",
          "type": "address"
        },
        {
          "internalType": "uint256",
          "name": "tokenId",
          "type": "uint256"
        }
      ],
      "name": "safeTransferFrom",
      "outputs": [],
      "stateMutability": "nonpayable",
      "type": "function"
    },
    {
      "inputs": [
        {
          "internalType": "address",
          "name": "from",
          "type": "address"
        },
        {
          "internalType": "address",
          "name": "to",
          "type": "address"
        },
        {
          "internalType": "uint256",
          "name": "tokenId",
          "type": "uint256"
        },
        {
          "internalType": "bytes",
          "name": "data",
          "type": "bytes"
        }
      ],
      "name": "safeTransferFrom",
      "outputs": [],
      "stateMutability": "nonpayable",
      "type": "function"
    },
    {
      "inputs": [
        {
          "internalType": "address",
          "name": "operator",
          "type": "address"
        },
        {
          "internalType": "bool",
          "name": "approved",
          "type": "bool"
        }
      ],
      "name": "setApprovalForAll",
      "outputs": [],
      "stateMutability": "nonpayable",
      "type": "function"
    },
    {
      "inputs": [
        {
          "internalType": "bytes4",
          "name": "interfaceId",
          "type": "bytes4"
        }
      ],
      "name": "supportsInterface",
      "outputs": [
        {
          "internalType": "bool",
          "name": "",
          "type": "bool"
        }
      ],
      "stateMutability": "view",
      "type": "function"
    },
    {
      "inputs": [],
      "name": "symbol",
      "outputs": [
        {
          "internalType": "string",
          "name": "",
          "type": "string"
        }
      ],
      "stateMutability": "view",
      "type": "function"
    },
    {
      "inputs": [
        {
          "internalType": "uint256",
          "name": "index",
          "type": "uint256"
        }
      ],
      "name": "tokenByIndex",
      "outputs": [
        {
          "internalType": "uint256",
          "name": "",
          "type": "uint256"
        }
      ],
      "stateMutability": "view",
      "type": "function"
    },
    {
      "inputs": [
        {
          "internalType": "address",
          "name": "owner",
          "type": "address"
        },
        {
          "internalType": "uint256",
          "name": "index",
          "type": "uint256"
        }
      ],
      "name": "tokenOfOwnerByIndex",
      "outputs": [
        {
          "internalType": "uint256",
          "name": "",
          "type": "uint256"
        }
      ],
      "stateMutability": "view",
      "type": "function"
    },
    {
      "inputs": [
        {
          "internalType": "uint256",
          "name": "tokenId",
          "type": "uint256"
        }
      ],
      "name": "tokenURI",
      "outputs": [
        {
          "internalType": "string",
          "name": "",
          "type": "string"
        }
      ],
      "stateMutability": "view",
      "type": "function"
    },
    {
      "inputs": [],
      "name": "totalSupply",
      "outputs": [
        {
          "internalType": "uint256",
          "name": "",
          "type": "uint256"
        }
      ],
      "stateMutability": "view",
      "type": "function"
    },
    {
      "inputs": [
        {
          "internalType": "address",
          "name": "from",
          "type": "address"
        },
        {
          "internalType": "address",
          "name": "to",
          "type": "address"
        },
        {
          "internalType": "uint256",
          "name": "tokenId",
          "type": "uint256"
        }
      ],
      "name": "transferFrom",
      "outputs": [],
      "stateMutability": "nonpayable",
      "type": "function"
    },
    {
      "inputs": [
        {
          "internalType": "address",
          "name": "newOwner",
          "type": "address"
        }
      ],
      "name": "transferOwnership",
      "outputs": [],
      "stateMutability": "nonpayable",
      "type": "function"
    }
  ],
  "bytecode": "0x608060405234801561001057600080fd5b50336040518060400160405280601b81526020017f496e647573747269616c204d616368696e652050617373706f72740000000000815250604051806040016040528060038152602001620494d560ec1b815250816000908161007391906101b1565b50600161008082826101b1565b5050506001600160a01b0381166100b157604051631e4fbdf760e01b81526000600482015260240160405180910390fd5b6100ba816100c0565b5061026f565b600b80546001600160a01b038381166001600160a01b0319831681179093556040519116919082907f8be0079c531659141344cd1fd0a4f28419497f9722a3daafe3b4186f6b6457e090600090a35050565b634e487b7160e01b600052604160045260246000fd5b600181811c9082168061013c57607f821691505b60208210810361015c57634e487b7160e01b600052602260045260246000fd5b50919050565b601f8211156101ac57806000526020600020601f840160051c810160208510156101895750805b601f840160051c820191505b818110156101a95760008155600101610195565b50505b505050565b81516001600160401b038111156101ca576101ca610112565b6101de816101d88454610128565b84610162565b6020601f82116001811461021257600083156101fa5750848201515b600019600385901b1c1916600184901b1784556101a9565b600084815260208120601f198516915b828110156102425787850151825560209485019460019092019101610222565b50848210156102605786840151600019600387901b60f8161c191681555b50505050600190811b01905550565b61181d8061027e6000396000f3fe608060405234801561001057600080fd5b506004361061012c5760003560e01c806370a08231116100ad578063a22cb46511610071578063a22cb46514610266578063b88d4fde14610279578063c87b56dd1461028c578063e985e9c51461029f578063f2fde38b146102b257600080fd5b806370a082311461021f578063715018a61461023257806378da4ce31461023a5780638da5cb5b1461024d57806395d89b411461025e57600080fd5b806323b872dd116100f457806323b872dd146101c05780632f745c59146101d357806342842e0e146101e65780634f6ccce7146101f95780636352211e1461020c57600080fd5b806301ffc9a71461013157806306fdde0314610159578063081812fc1461016e578063095ea7b31461019957806318160ddd146101ae575b600080fd5b61014461013f36600461129c565b6102c5565b60405190151581526020015b60405180910390f35b6101616102d6565b6040516101509190611309565b61018161017c36600461131c565b610368565b6040516001600160a01b039091168152602001610150565b6101ac6101a7366004611351565b610391565b005b6009545b604051908152602001610150565b6101ac6101ce36600461137b565b6103a0565b6101b26101e1366004611351565b610430565b6101ac6101f436600461137b565b610495565b6101b261020736600461131c565b6104b5565b61018161021a36600461131c565b61050e565b6101b261022d3660046113b8565b610519565b6101ac610561565b6101b2610248366004611463565b610575565b600b546001600160a01b0316610181565b6101616105b1565b6101ac6102743660046114c5565b6105c0565b6101ac610287366004611501565b6105cb565b61016161029a36600461131c565b6105e2565b6101446102ad36600461157d565b6105ed565b6101ac6102c03660046113b8565b61061b565b60006102d082610659565b92915050565b6060600080546102e5906115b0565b80601f0160208091040260200160405190810160405280929190818152602001828054610311906115b0565b801561035e5780601f106103335761010080835404028352916020019161035e565b820191906000526020600020905b81548152906001019060200180831161034157829003601f168201915b5050505050905090565b60006103738261067e565b506000828152600460205260409020546001600160a01b03166102d0565b61039c8282336106b7565b5050565b6001600160a01b0382166103cf57604051633250574960e11b8152600060048201526024015b60405180910390fd5b60006103dc8383336106c4565b9050836001600160a01b0316816001600160a01b03161461042a576040516364283d7b60e01b81526001600160a01b03808616600483015260248201849052821660448201526064016103c6565b50505050565b600061043b83610519565b821061046c5760405163295f44f760e21b81526001600160a01b0384166004820152602481018390526044016103c6565b506001600160a01b03919091166000908152600760209081526040808320938352929052205490565b6104b0838383604051806020016040528060008152506105cb565b505050565b60006104c060095490565b82106104e95760405163295f44f760e21b815260006004820152602481018390526044016103c6565b600982815481106104fc576104fc6115ea565b90600052602060002001549050919050565b60006102d08261067e565b60006001600160a01b038216610545576040516322718ad960e21b8152600060048201526024016103c6565b506001600160a01b031660009081526003602052604090205490565b6105696106d9565b6105736000610706565b565b600061057f6106d9565b600c80546000918261059083611616565b9190505590506105a08482610758565b6105aa8184610772565b9392505050565b6060600180546102e5906115b0565b61039c3383836107c2565b6105d68484846103a0565b61042a84848484610861565b60606102d08261098a565b6001600160a01b03918216600090815260056020908152604080832093909416825291909152205460ff1690565b6106236106d9565b6001600160a01b03811661064d57604051631e4fbdf760e01b8152600060048201526024016103c6565b61065681610706565b50565b60006001600160e01b0319821663780e9d6360e01b14806102d057506102d082610a93565b6000818152600260205260408120546001600160a01b0316806102d057604051637e27328960e01b8152600481018490526024016103c6565b6104b08383836001610ab8565b60006106d1848484610bbe565b949350505050565b600b546001600160a01b031633146105735760405163118cdaa760e01b81523360048201526024016103c6565b600b80546001600160a01b038381166001600160a01b0319831681179093556040519116919082907f8be0079c531659141344cd1fd0a4f28419497f9722a3daafe3b4186f6b6457e090600090a35050565b61039c828260405180602001604052806000815250610c8b565b600082815260066020526040902061078a8282611676565b506040518281527ff8e1a15aba9398e019f0b49df1a4fde98ee17ae345cb5f6b5e2c27f5033e8ce79060200160405180910390a15050565b6001600160a01b0382166107f457604051630b61174360e31b81526001600160a01b03831660048201526024016103c6565b6001600160a01b03838116600081815260056020908152604080832094871680845294825291829020805460ff191686151590811790915591519182527f17307eab39ab6107e8899845ad3d59bd9653f200f220920489ca2b5937696c31910160405180910390a3505050565b6001600160a01b0383163b1561042a57604051630a85bd0160e11b81526001600160a01b0384169063150b7a02906108a3903390889087908790600401611735565b6020604051808303816000875af19250505080156108de575060408051601f3d908101601f191682019092526108db91810190611772565b60015b610947573d80801561090c576040519150601f19603f3d011682016040523d82523d6000602084013e610911565b606091505b50805160000361093f57604051633250574960e11b81526001600160a01b03851660048201526024016103c6565b805181602001fd5b6001600160e01b03198116630a85bd0160e11b1461098357604051633250574960e11b81526001600160a01b03851660048201526024016103c6565b5050505050565b60606109958261067e565b50600082815260066020526040812080546109af906115b0565b80601f01602080910402602001604051908101604052809291908181526020018280546109db906115b0565b8015610a285780601f106109fd57610100808354040283529160200191610a28565b820191906000526020600020905b815481529060010190602001808311610a0b57829003601f168201915b505050505090506000610a4660408051602081019091526000815290565b90508051600003610a58575092915050565b815115610a8a578082604051602001610a7292919061178f565b60405160208183030381529060405292505050919050565b6106d184610ca2565b60006001600160e01b03198216632483248360e11b14806102d057506102d082610d16565b8080610acc57506001600160a01b03821615155b15610b8e576000610adc8461067e565b90506001600160a01b03831615801590610b085750826001600160a01b0316816001600160a01b031614155b8015610b1b5750610b1981846105ed565b155b15610b445760405163a9fbf51f60e01b81526001600160a01b03841660048201526024016103c6565b8115610b8c5783856001600160a01b0316826001600160a01b03167f8c5be1e5ebec7d5bd14f71427d1e84f3dd0314c0f7b2291e5b200ac8c7c3b92560405160405180910390a45b505b5050600090815260046020526040902080546001600160a01b0319166001600160a01b0392909216919091179055565b600080610bcc858585610d66565b90506001600160a01b038116610c2957610c2484600980546000838152600a60205260408120829055600182018355919091527f6e1540171b6c0c960b71a7020d9f60077f6af931a8bbf590da0223dacf75c7af0155565b610c4c565b846001600160a01b0316816001600160a01b031614610c4c57610c4c8185610e5f565b6001600160a01b038516610c6857610c6384610ef0565b6106d1565b846001600160a01b0316816001600160a01b0316146106d1576106d18585610f9f565b610c958383610fef565b6104b06000848484610861565b6060610cad8261067e565b506000610cc560408051602081019091526000815290565b90506000815111610ce557604051806020016040528060008152506105aa565b80610cef84611054565b604051602001610d0092919061178f565b6040516020818303038152906040529392505050565b60006001600160e01b031982166380ac58cd60e01b1480610d4757506001600160e01b03198216635b5e139f60e01b145b806102d057506301ffc9a760e01b6001600160e01b03198316146102d0565b6000828152600260205260408120546001600160a01b0390811690831615610d9357610d938184866110e7565b6001600160a01b03811615610dd157610db0600085600080610ab8565b6001600160a01b038116600090815260036020526040902080546000190190555b6001600160a01b03851615610e00576001600160a01b0385166000908152600360205260409020805460010190555b60008481526002602052604080822080546001600160a01b0319166001600160a01b0389811691821790925591518793918516917fddf252ad1be2c89b69c2b068fc378daa952ba7f163c4a11628f55a4df523b3ef91a4949350505050565b6000610e6a83610519565b600083815260086020526040902054909150808214610ebd576001600160a01b03841660009081526007602090815260408083208584528252808320548484528184208190558352600890915290208190555b5060009182526008602090815260408084208490556001600160a01b039094168352600781528383209183525290812055565b600954600090610f02906001906117be565b6000838152600a602052604081205460098054939450909284908110610f2a57610f2a6115ea565b906000526020600020015490508060098381548110610f4b57610f4b6115ea565b6000918252602080832090910192909255828152600a90915260408082208490558582528120556009805480610f8357610f836117d1565b6001900381819060005260206000200160009055905550505050565b60006001610fac84610519565b610fb691906117be565b6001600160a01b039093166000908152600760209081526040808320868452825280832085905593825260089052919091209190915550565b6001600160a01b03821661101957604051633250574960e11b8152600060048201526024016103c6565b6000611027838360006106c4565b90506001600160a01b038116156104b0576040516339e3563760e11b8152600060048201526024016103c6565b606060006110618361114b565b600101905060008167ffffffffffffffff811115611081576110816113d3565b6040519080825280601f01601f1916602001820160405280156110ab576020820181803683370190505b5090508181016020015b600019016f181899199a1a9b1b9c1cb0b131b232b360811b600a86061a8153600a85049450846110b557509392505050565b6110f2838383611223565b6104b0576001600160a01b03831661112057604051637e27328960e01b8152600481018290526024016103c6565b60405163177e802f60e01b81526001600160a01b0383166004820152602481018290526044016103c6565b60008072184f03e93ff9f4daa797ed6e38ed64bf6a1f0160401b831061118a5772184f03e93ff9f4daa797ed6e38ed64bf6a1f0160401b830492506040015b6d04ee2d6d415b85acef810000000083106111b6576d04ee2d6d415b85acef8100000000830492506020015b662386f26fc1000083106111d457662386f26fc10000830492506010015b6305f5e10083106111ec576305f5e100830492506008015b612710831061120057612710830492506004015b60648310611212576064830492506002015b600a83106102d05760010192915050565b60006001600160a01b038316158015906106d15750826001600160a01b0316846001600160a01b0316148061125d575061125d84846105ed565b806106d15750506000908152600460205260409020546001600160a01b03908116911614919050565b6001600160e01b03198116811461065657600080fd5b6000602082840312156112ae57600080fd5b81356105aa81611286565b60005b838110156112d45781810151838201526020016112bc565b50506000910152565b600081518084526112f58160208601602086016112b9565b601f01601f19169290920160200192915050565b6020815260006105aa60208301846112dd565b60006020828403121561132e57600080fd5b5035919050565b80356001600160a01b038116811461134c57600080fd5b919050565b6000806040838503121561136457600080fd5b61136d83611335565b946020939093013593505050565b60008060006060848603121561139057600080fd5b61139984611335565b92506113a760208501611335565b929592945050506040919091013590565b6000602082840312156113ca57600080fd5b6105aa82611335565b634e487b7160e01b600052604160045260246000fd5b60008067ffffffffffffffff841115611404576114046113d3565b50604051601f19601f85018116603f0116810181811067ffffffffffffffff82111715611433576114336113d3565b60405283815290508082840185101561144b57600080fd5b83836020830137600060208583010152509392505050565b6000806040838503121561147657600080fd5b61147f83611335565b9150602083013567ffffffffffffffff81111561149b57600080fd5b8301601f810185136114ac57600080fd5b6114bb858235602084016113e9565b9150509250929050565b600080604083850312156114d857600080fd5b6114e183611335565b9150602083013580151581146114f657600080fd5b809150509250929050565b6000806000806080858703121561151757600080fd5b61152085611335565b935061152e60208601611335565b925060408501359150606085013567ffffffffffffffff81111561155157600080fd5b8501601f8101871361156257600080fd5b611571878235602084016113e9565b91505092959194509250565b6000806040838503121561159057600080fd5b61159983611335565b91506115a760208401611335565b90509250929050565b600181811c908216806115c457607f821691505b6020821081036115e457634e487b7160e01b600052602260045260246000fd5b50919050565b634e487b7160e01b600052603260045260246000fd5b634e487b7160e01b600052601160045260246000fd5b60006001820161162857611628611600565b5060010190565b601f8211156104b057806000526020600020601f840160051c810160208510156116565750805b601f840160051c820191505b818110156109835760008155600101611662565b815167ffffffffffffffff811115611690576116906113d3565b6116a48161169e84546115b0565b8461162f565b6020601f8211600181146116d857600083156116c05750848201515b600019600385901b1c1916600184901b178455610983565b600084815260208120601f198516915b8281101561170857878501518255602094850194600190920191016116e8565b50848210156117265786840151600019600387901b60f8161c191681555b50505050600190811b01905550565b6001600160a01b0385811682528416602082015260408101839052608060608201819052600090611768908301846112dd565b9695505050505050565b60006020828403121561178457600080fd5b81516105aa81611286565b600083516117a18184602088016112b9565b8351908301906117b58183602088016112b9565b01949350505050565b818103818111156102d0576102d0611600565b634e487b7160e01b600052603160045260246000fdfea2646970667358221220971cf326f073d1b2b9afa21b7a22a54c6566d9448bca5c0d7846e8c8be845dd664736f6c634300081e0033",
  "linkReferences": {},
  "deployedLinkReferences": {}
}