{
  "_format": "hh-sol-artifact-1",
  "contractName": "SupplyChainEscrow",
  "sourceName": "contracts/SupplyChainEscrow.sol",
  "abi": [
    {
      "inputs": [
        {
          "internalType": "address",
          "name": "_buyer",
          "type": "address"
        },
        {
          "internalType": "address",
          "name": "_seller",
          "type": "address"
        },
        {
          "internalType": "address",
          "name": "_arbitrator",
          "type": "address"
        },
        {
          "internalType": "uint256",
          "name": "_totalAmount",
          "type": "uint256"
        },
        {
          "internalType": "string",
          "name": "_itemName",
          "type": "string"
        },
        {
          "internalType": "uint256",
          "name": "_quantity",
          "type": "uint256"
        },
        {
          "internalType": "uint256",
          "name": "_deliveryDurationSeconds",
          "type": "uint256"
        },
        {
          "internalType": "string",
          "name": "_poCid",
          "type": "string"
        }
      ],
      "stateMutability": "nonpayable",
      "type": "constructor"
    },
    {
      "inputs": [],
      "name": "ReentrancyGuardReentrantCall",
      "type": "error"
    },
    {
      "anonymous": false,
      "inputs": [
        {
          "indexed": false,
          "internalType": "uint256",
          "name": "amount",
          "type": "uint256"
        }
      ],
      "name": "AfterDeliverPaymentReleased",
      "type": "event"
    },
    {
      "anonymous": false,
      "inputs": [
        {
          "indexed": true,
          "internalType": "address",
          "name": "buyer",
          "type": "address"
        }
      ],
      "name": "ContractCancelled",
      "type": "event"
    },
    {
      "anonymous": false,
      "inputs": [
        {
          "indexed": true,
          "internalType": "address",
          "name": "raisedBy",
          "type": "address"
        }
      ],
      "name": "DisputeRaised",
      "type": "event"
    },
    {
      "anonymous": false,
      "inputs": [
        {
          "indexed": false,
          "internalType": "bool",
          "name": "releasedToSeller",
          "type": "bool"
        }
      ],
      "name": "DisputeResolved",
      "type": "event"
    },
    {
      "anonymous": false,
      "inputs": [
        {
          "indexed": true,
          "internalType": "address",
          "name": "buyer",
          "type": "address"
        },
        {
          "indexed": true,
          "internalType": "address",
          "name": "seller",
          "type": "address"
        },
        {
          "indexed": false,
          "internalType": "address",
          "name": "escrowAddress",
          "type": "address"
        },
        {
          "indexed": false,
          "internalType": "uint256",
          "name": "totalAmount",
          "type": "uint256"
        },
        {
          "indexed": false,
          "internalType": "string",
          "name": "poCid",
          "type": "string"
        }
      ],
      "name": "EscrowCreated",
      "type": "event"
    },
    {
      "anonymous": false,
      "inputs": [
        {
          "indexed": false,
          "internalType": "uint256",
          "name": "amount",
          "type": "uint256"
        }
      ],
      "name": "FinalPaymentReleased",
      "type": "event"
    },
    {
      "anonymous": false,
      "inputs": [
        {
          "indexed": false,
          "internalType": "string",
          "name": "provider",
          "type": "string"
        },
        {
          "indexed": false,
          "internalType": "string",
          "name": "trackingNumber",
          "type": "string"
        }
      ],
      "name": "MarkedShipped",
      "type": "event"
    },
    {
      "anonymous": false,
      "inputs": [
        {
          "indexed": false,
          "internalType": "uint256",
          "name": "amount",
          "type": "uint256"
        }
      ],
      "name": "ProductionPaymentReleased",
      "type": "event"
    },
    {
      "anonymous": false,
      "inputs": [],
      "name": "SellerAccepted",
      "type": "event"
    },
    {
      "inputs": [],
      "name": "AfterDeliverAmount",
      "outputs": [
        {
          "internalType": "uint256",
          "name": "",
          "type": "uint256"
        }
      ],
      "stateMutability": "view",
      "type": "function"
    },
    {
      "inputs": [],
      "name": "BuyerclaimAfterDeadline",
      "outputs": [],
      "stateMutability": "nonpayable",
      "type": "function"
    },
    {
      "inputs": [],
      "name": "acceptContract",
      "outputs": [],
      "stateMutability": "nonpayable",
      "type": "function"
    },
    {
      "inputs": [],
      "name": "arbitrator",
      "outputs": [
        {
          "internalType": "address",
          "name": "",
          "type": "address"
        }
      ],
      "stateMutability": "view",
      "type": "function"
    },
    {
      "inputs": [],
      "name": "buyer",
      "outputs": [
        {
          "internalType": "address",
          "name": "",
          "type": "address"
        }
      ],
      "stateMutability": "view",
      "type": "function"
    },
    {
      "inputs": [],
      "name": "buyerCompletecontract",
      "outputs": [],
      "stateMutability": "nonpayable",
      "type": "function"
    },
    {
      "inputs": [],
      "name": "cancelContract",
      "outputs": [],
      "stateMutability": "nonpayable",
      "type": "function"
    },
    {
      "inputs": [],
      "name": "completed",
      "outputs": [
        {
          "internalType": "bool",
          "name": "",
          "type": "bool"
        }
      ],
      "stateMutability": "view",
      "type": "function"
    },
    {
      "inputs": [],
      "name": "confirmDelivery",
      "outputs": [],
      "stateMutability": "nonpayable",
      "type": "function"
    },
    {
      "inputs": [],
      "name": "delivered",
      "outputs": [
        {
          "internalType": "bool",
          "name": "",
          "type": "bool"
        }
      ],
      "stateMutability": "view",
      "type": "function"
    },
    {
      "inputs": [],
      "name": "deliveredAt",
      "outputs": [
        {
          "internalType": "uint256",
          "name": "",
          "type": "uint256"
        }
      ],
      "stateMutability": "view",
      "type": "function"
    },
    {
      "inputs": [],
      "name": "deliveryDeadline",
      "outputs": [
        {
          "internalType": "uint256",
          "name": "",
          "type": "uint256"
        }
      ],
      "stateMutability": "view",
      "type": "function"
    },
    {
      "inputs": [],
      "name": "depositAndStartProduction",
      "outputs": [],
      "stateMutability": "payable",
      "type": "function"
    },
    {
      "inputs": [],
      "name": "deposited",
      "outputs": [
        {
          "internalType": "bool",
          "name": "",
          "type": "bool"
        }
      ],
      "stateMutability": "view",
      "type": "function"
    },
    {
      "inputs": [],
      "name": "disputed",
      "outputs": [
        {
          "internalType": "bool",
          "name": "",
          "type": "bool"
        }
      ],
      "stateMutability": "view",
      "type": "function"
    },
    {
      "inputs": [],
      "name": "factory",
      "outputs": [
        {
          "internalType": "address",
          "name": "",
          "type": "address"
        }
      ],
      "stateMutability": "view",
      "type": "function"
    },
    {
      "inputs": [],
      "name": "itemName",
      "outputs": [
        {
          "internalType": "string",
          "name": "",
          "type": "string"
        }
      ],
      "stateMutability": "view",
      "type": "function"
    },
    {
      "inputs": [
        {
          "internalType": "string",
          "name": "_shippingProvider",
          "type": "string"
        },
        {
          "internalType": "string",
          "name": "_trackingNumber",
          "type": "string"
        }
      ],
      "name": "markShipped",
      "outputs": [],
      "stateMutability": "nonpayable",
      "type": "function"
    },
    {
      "inputs": [],
      "name": "poCid",
      "outputs": [
        {
          "internalType": "string",
          "name": "",
          "type": "string"
        }
      ],
      "stateMutability": "view",
      "type": "function"
    },
    {
      "inputs": [],
      "name": "productionAmount",
      "outputs": [
        {
          "internalType": "uint256",
          "name": "",
          "type": "uint256"
        }
      ],
      "stateMutability": "view",
      "type": "function"
    },
    {
      "inputs": [],
      "name": "quantity",
      "outputs": [
        {
          "internalType": "uint256",
          "name": "",
          "type": "uint256"
        }
      ],
      "stateMutability": "view",
      "type": "function"
    },
    {
      "inputs": [],
      "name": "raiseDispute",
      "outputs": [],
      "stateMutability": "nonpayable",
      "type": "function"
    },
    {
      "inputs": [],
      "name": "remainingAmount",
      "outputs": [
        {
          "internalType": "uint256",
          "name": "",
          "type": "uint256"
        }
      ],
      "stateMutability": "view",
      "type": "function"
    },
    {
      "inputs": [
        {
          "internalType": "bool",
          "name": "releaseToSeller",
          "type": "bool"
        }
      ],
      "name": "resolveDispute",
      "outputs": [],
      "stateMutability": "nonpayable",
      "type": "function"
    },
    {
      "inputs": [],
      "name": "seller",
      "outputs": [
        {
          "internalType": "address",
          "name": "",
          "type": "address"
        }
      ],
      "stateMutability": "view",
      "type": "function"
    },
    {
      "inputs": [],
      "name": "sellerAccepted",
      "outputs": [
        {
          "internalType": "bool",
          "name": "",
          "type": "bool"
        }
      ],
      "stateMutability": "view",
      "type": "function"
    },
    {
      "inputs": [],
      "name": "sellerClaimAfterDeadline",
      "outputs": [],
      "stateMutability": "nonpayable",
      "type": "function"
    },
    {
      "inputs": [],
      "name": "sellerClaimFinalPayment",
      "outputs": [],
      "stateMutability": "nonpayable",
      "type": "function"
    },
    {
      "inputs": [],
      "name": "shipped",
      "outputs": [
        {
          "internalType": "bool",
          "name": "",
          "type": "bool"
        }
      ],
      "stateMutability": "view",
      "type": "function"
    },
    {
      "inputs": [],
      "name": "shippingProvider",
      "outputs": [
        {
          "internalType": "string",
          "name": "",
          "type": "string"
        }
      ],
      "stateMutability": "view",
      "type": "function"
    },
    {
      "inputs": [],
      "name": "status",
      "outputs": [
        {
          "internalType": "enum SupplyChainEscrow.Status",
          "name": "",
          "type": "uint8"
        }
      ],
      "stateMutability": "view",
      "type": "function"
    },
    {
      "inputs": [],
      "name": "totalAmount",
      "outputs": [
        {
          "internalType": "uint256",
          "name": "",
          "type": "uint256"
        }
      ],
      "stateMutability": "view",
      "type": "function"
    },
    {
      "inputs": [],
      "name": "trackingNumber",
      "outputs": [
        {
          "internalType": "string",
          "name": "",
          "type": "string"
        }
      ],
      "stateMutability": "view",
      "type": "function"
    },
    {
      "stateMutability": "payable",
      "type": "receive"
    }
  ],
  "bytecode": "0x608060405234801561001057600080fd5b5060405161253738038061253783398101604081905261002f91610366565b60016000556001600160a01b03881661007f5760405162461bcd60e51b815260206004820152600d60248201526c24b73b30b634b210313abcb2b960991b60448201526064015b60405180910390fd5b6001600160a01b0387166100c65760405162461bcd60e51b815260206004820152600e60248201526d24b73b30b634b21039b2b63632b960911b6044820152606401610076565b6000851161010b5760405162461bcd60e51b81526020600482015260126024820152710416d6f756e74206d757374206265203e20360741b6044820152606401610076565b6000831161015b5760405162461bcd60e51b815260206004820152601460248201527f5175616e74697479206d757374206265203e20300000000000000000000000006044820152606401610076565b6000821161019e5760405162461bcd60e51b815260206004820152601060248201526f24b73b30b634b210323ab930ba34b7b760811b6044820152606401610076565b600180546001600160a01b03808b166001600160a01b031992831617909255600280548a841690831617905560038054928916928216929092179091556004805490911633179055600585905560006006556008859055600961020185826104a9565b50600a8390556102118242610567565b600b55600e61022082826104a9565b506010805460ff60301b191690556040516001600160a01b0380891691908a16907fce1e6bf60de0cb83b0dc94c84bb59699ad0638667144f8d343087a248d77d648906102729030908a90879061058e565b60405180910390a350505050505050506105d7565b80516001600160a01b038116811461029e57600080fd5b919050565b634e487b7160e01b600052604160045260246000fd5b60005b838110156102d45781810151838201526020016102bc565b50506000910152565b600082601f8301126102ee57600080fd5b81516001600160401b03811115610307576103076102a3565b604051601f8201601f19908116603f011681016001600160401b0381118282101715610335576103356102a3565b60405281815283820160200185101561034d57600080fd5b61035e8260208301602087016102b9565b949350505050565b600080600080600080600080610100898b03121561038357600080fd5b61038c89610287565b975061039a60208a01610287565b96506103a860408a01610287565b60608a015160808b015191975095506001600160401b038111156103cb57600080fd5b6103d78b828c016102dd565b60a08b015160c08c015160e08d0151929750909550935090506001600160401b0381111561040457600080fd5b6104108b828c016102dd565b9150509295985092959890939650565b600181811c9082168061043457607f821691505b60208210810361045457634e487b7160e01b600052602260045260246000fd5b50919050565b601f8211156104a457806000526020600020601f840160051c810160208510156104815750805b601f840160051c820191505b818110156104a1576000815560010161048d565b50505b505050565b81516001600160401b038111156104c2576104c26102a3565b6104d6816104d08454610420565b8461045a565b6020601f82116001811461050a57600083156104f25750848201515b600019600385901b1c1916600184901b1784556104a1565b600084815260208120601f198516915b8281101561053a578785015182556020948501946001909201910161051a565b50848210156105585786840151600019600387901b60f8161c191681555b50505050600190811b01905550565b8082018082111561058857634e487b7160e01b600052601160045260246000fd5b92915050565b60018060a01b038416815282602082015260606040820152600082518060608401526105c18160808501602087016102b9565b601f01601f191691909101608001949350505050565b611f51806105e66000396000f3fe6080604052600436106101f25760003560e01c80636cc6cde11161010d578063a50a1fe6116100a0578063c45a01551161006f578063c45a01551461050e578063eda5998f1461052e578063eef49ee314610543578063f439a3c31461055d578063ff70a1621461057257600080fd5b8063a50a1fe6146104a4578063ba446ae9146104ba578063bbdfbfba146104d9578063bcf53258146104f957600080fd5b806389e1e82a116100dc57806389e1e82a146104375780639394acb5146104575780639d9a7fe91461046d5780639e7d9d281461048e57600080fd5b80636cc6cde1146103da5780636daa2d44146103fa5780637150d8ae1461040f5780637f6762191461042f57600080fd5b8063416af8df116101855780635e10177b116101545780635e10177b14610378578063619d26711461038d57806361b60f6b146103a2578063646ce5a8146103c557600080fd5b8063416af8df14610323578063526ff16f1461033857806356e444c71461034d57806357549eb01461036257600080fd5b8063200d2ed2116101c1578063200d2ed2146102a65780632b68bb2d146102d45780633d3ac5b6146102eb57806340401fea1461030157600080fd5b80630695c46c146101fe57806308551a531461023457806317fc45e21461026c5780631a39d8ef1461029057600080fd5b366101f957005b600080fd5b34801561020a57600080fd5b5060105461021f90600160201b900460ff1681565b60405190151581526020015b60405180910390f35b34801561024057600080fd5b50600254610254906001600160a01b031681565b6040516001600160a01b03909116815260200161022b565b34801561027857600080fd5b50610282600a5481565b60405190815260200161022b565b34801561029c57600080fd5b5061028260055481565b3480156102b257600080fd5b506010546102c790600160301b900460ff1681565b60405161022b9190611a3a565b3480156102e057600080fd5b506102e9610592565b005b3480156102f757600080fd5b5061028260075481565b34801561030d57600080fd5b506103166106a9565b60405161022b9190611aa8565b34801561032f57600080fd5b50610316610737565b34801561034457600080fd5b50610316610744565b34801561035957600080fd5b506102e9610751565b34801561036e57600080fd5b50610282600b5481565b34801561038457600080fd5b506102e96109a4565b34801561039957600080fd5b506102e9610bc4565b3480156103ae57600080fd5b5060105461021f9065010000000000900460ff1681565b3480156103d157600080fd5b50610316610c9f565b3480156103e657600080fd5b50600354610254906001600160a01b031681565b34801561040657600080fd5b506102e9610cac565b34801561041b57600080fd5b50600154610254906001600160a01b031681565b6102e9610d7c565b34801561044357600080fd5b506102e9610452366004611ac2565b611033565b34801561046357600080fd5b5061028260065481565b34801561047957600080fd5b5060105461021f906301000000900460ff1681565b34801561049a57600080fd5b50610282600f5481565b3480156104b057600080fd5b5061028260085481565b3480156104c657600080fd5b5060105461021f90610100900460ff1681565b3480156104e557600080fd5b5060105461021f9062010000900460ff1681565b34801561050557600080fd5b506102e96112e4565b34801561051a57600080fd5b50600454610254906001600160a01b031681565b34801561053a57600080fd5b506102e96114ca565b34801561054f57600080fd5b5060105461021f9060ff1681565b34801561056957600080fd5b506102e96116f2565b34801561057e57600080fd5b506102e961058d366004611b89565b61185b565b6001546001600160a01b031633146105c55760405162461bcd60e51b81526004016105bc90611bf2565b60405180910390fd5b60105460ff16156106095760405162461bcd60e51b815260206004820152600e60248201526d105b1c9958591e48199d5b99195960921b60448201526064016105bc565b6000601054600160301b900460ff16600781111561062957610629611a24565b146106665760405162461bcd60e51b815260206004820152600d60248201526c10d85b9b9bdd0818d85b98d95b609a1b60448201526064016105bc565b6010805460ff60301b1916660700000000000017905560405133907f127a6f1a35dab59c491a32a71869783bdb5702256f5709cb1e60f322ac1529d490600090a2565b600980546106b690611c15565b80601f01602080910402602001604051908101604052809291908181526020018280546106e290611c15565b801561072f5780601f106107045761010080835404028352916020019161072f565b820191906000526020600020905b81548152906001019060200180831161071257829003601f168201915b505050505081565b600e80546106b690611c15565b600d80546106b690611c15565b6001546001600160a01b0316331461077b5760405162461bcd60e51b81526004016105bc90611bf2565b6107836119fa565b60105462010000900460ff166107d45760405162461bcd60e51b8152602060048201526016602482015275125d195b481b9bdd081e595d0819195b1a5d995c995960521b60448201526064016105bc565b6010546301000000900460ff161561082e5760405162461bcd60e51b815260206004820152601a60248201527f436f6e747261637420616c726561647920636f6d706c6574656400000000000060448201526064016105bc565b600880546000918290556010805466ff0000ff000000191666050000010000001790556002546040519192916001600160a01b039091169083908381818185875af1925050503d80600081146108a0576040519150601f19603f3d011682016040523d82523d6000602084013e6108a5565b606091505b50509050806108f65760405162461bcd60e51b815260206004820152601c60248201527f4661696c656420746f2073656e642066696e616c207061796d656e740000000060448201526064016105bc565b600480546001546040516378da4ce360e01b81526001600160a01b03928316936378da4ce39361092b931691600e9101611c4f565b600060405180830381600087803b15801561094557600080fd5b505af1158015610959573d6000803e3d6000fd5b505050507f38485e5f70532849a6ff078e9f0b0abdb13611aa6731e1fcf542912d6980efb28260405161098e91815260200190565b60405180910390a150506109a26001600055565b565b6001546001600160a01b031633146109ce5760405162461bcd60e51b81526004016105bc90611bf2565b6109d66119fa565b601054600160201b900460ff1615610a005760405162461bcd60e51b81526004016105bc90611ced565b601054610100900460ff16610a455760405162461bcd60e51b815260206004820152600b60248201526a139bdd081cda1a5c1c195960aa1b60448201526064016105bc565b60105462010000900460ff1615610a925760405162461bcd60e51b8152602060048201526011602482015270105b1c9958591e4811195b1a5d995c9959607a1b60448201526064016105bc565b600060646005546032610aa59190611d2b565b610aaf9190611d48565b6007819055600854909150610ac5908290611d6a565b6008556010805442600f5566ff000000ff0000191666040000000100001790556002546040516000916001600160a01b03169083908381818185875af1925050503d8060008114610b32576040519150601f19603f3d011682016040523d82523d6000602084013e610b37565b606091505b5050905080610b945760405162461bcd60e51b8152602060048201526024808201527f4661696c656420746f2073656e642061667465722064656c69766572207061796044820152631b595b9d60e21b60648201526084016105bc565b6040518281527f2dfdb966e7190b3f914db51ef79ecbb965b770a4c249fa92121a9f42f6be35fa9060200161098e565b6002546001600160a01b03163314610bee5760405162461bcd60e51b81526004016105bc90611d7d565b6000601054600160301b900460ff166007811115610c0e57610c0e611a24565b14610c5b5760405162461bcd60e51b815260206004820152601f60248201527f416c7265616479206163636570746564206f7220696e2070726f67726573730060448201526064016105bc565b6010805466ffff0000000000191666010100000000001790556040517fe265a59e0d8e68fca2a95c22cc164b1922c5d69f1a31b63a5c35d59af3fa032090600090a1565b600c80546106b690611c15565b6001546001600160a01b0316331480610ccf57506002546001600160a01b031633145b610d0c5760405162461bcd60e51b815260206004820152600e60248201526d139bdd08185d5d1a1bdc9a5e995960921b60448201526064016105bc565b6010546301000000900460ff1615610d365760405162461bcd60e51b81526004016105bc90611da1565b6010805466ff00ff000000001916660600010000000017905560405133907f0b3cd97b16a08a5c77357c276d248827ad32dfd56060f7c55d6255537ba3d96290600090a2565b6001546001600160a01b03163314610da65760405162461bcd60e51b81526004016105bc90611bf2565b610dae6119fa565b60105465010000000000900460ff16610e095760405162461bcd60e51b815260206004820152601860248201527f53656c6c6572206d75737420616363657074206669727374000000000000000060448201526064016105bc565b60105460ff1615610e505760405162461bcd60e51b8152602060048201526011602482015270105b1c9958591e4819195c1bdcda5d1959607a1b60448201526064016105bc565b6005543414610e9a5760405162461bcd60e51b815260206004820152601660248201527514d95b9908195e1858dd081d1bdd185b105b5bdd5b9d60521b60448201526064016105bc565b6001601054600160301b900460ff166007811115610eba57610eba611a24565b14610f075760405162461bcd60e51b815260206004820181905260248201527f4d7573742062652061636365707465642062792073656c6c657220666972737460448201526064016105bc565b60006064600554601e610f1a9190611d2b565b610f249190611d48565b6006819055600554909150610f3a908290611d6a565b6008556010805466ff0000000000ff191666020000000000011790556002546040516000916001600160a01b03169083908381818185875af1925050503d8060008114610fa3576040519150601f19603f3d011682016040523d82523d6000602084013e610fa8565b606091505b50509050806110035760405162461bcd60e51b815260206004820152602160248201527f4661696c656420746f2073656e642070726f64756374696f6e207061796d656e6044820152601d60fa1b60648201526084016105bc565b6040518281527f9a44608bcd034a9075640dd9f85f303467fa2fb447f3220e8268ab43f8e062eb9060200161098e565b6003546001600160a01b0316331461107e5760405162461bcd60e51b815260206004820152600e60248201526d2737ba1030b93134ba3930ba37b960911b60448201526064016105bc565b6110866119fa565b601054600160201b900460ff166110cc5760405162461bcd60e51b815260206004820152600a6024820152694e6f206469737075746560b01b60448201526064016105bc565b600854806111125760405162461bcd60e51b81526020600482015260136024820152724e6f2066756e647320746f2072656c6561736560681b60448201526064016105bc565b60006008556010805464ff000000001916905581156111ed576010805466ff0000ff000000191666050000010000001790556002546040516000916001600160a01b03169083908381818185875af1925050503d8060008114611191576040519150601f19603f3d011682016040523d82523d6000602084013e611196565b606091505b50509050806111e75760405162461bcd60e51b815260206004820152601860248201527f4661696c656420746f2073656e6420746f2073656c6c6572000000000000000060448201526064016105bc565b506112a1565b6010805460ff60301b191666070000000000001790556001546040516000916001600160a01b03169083908381818185875af1925050503d8060008114611250576040519150601f19603f3d011682016040523d82523d6000602084013e611255565b606091505b505090508061129f5760405162461bcd60e51b81526020600482015260166024820152752330b4b632b2103a37903932b33ab73210313abcb2b960511b60448201526064016105bc565b505b60405182151581527f8015c5005d9ad5d85ca80d3f894f08e0159277704c54166e5cff108800fa80cd9060200160405180910390a1506112e16001600055565b50565b6002546001600160a01b0316331461130e5760405162461bcd60e51b81526004016105bc90611d7d565b601054600160201b900460ff16156113385760405162461bcd60e51b81526004016105bc90611ced565b6113406119fa565b60105462010000900460ff166113885760405162461bcd60e51b815260206004820152600d60248201526c139bdd0819195b1a5d995c9959609a1b60448201526064016105bc565b6010546301000000900460ff16156113b25760405162461bcd60e51b81526004016105bc90611da1565b600f546113c29062127500611dcc565b42116114105760405162461bcd60e51b815260206004820152601860248201527f496e7370656374696f6e20706572696f6420616374697665000000000000000060448201526064016105bc565b600880546000918290556010805466ff0000ff000000191666050000010000001790556002546040519192916001600160a01b039091169083908381818185875af1925050503d8060008114611482576040519150601f19603f3d011682016040523d82523d6000602084013e611487565b606091505b50509050806108f65760405162461bcd60e51b815260206004820152600f60248201526e151c985b9cd9995c8819985a5b1959608a1b60448201526064016105bc565b6002546001600160a01b031633146114f45760405162461bcd60e51b81526004016105bc90611d7d565b601054600160201b900460ff161561151e5760405162461bcd60e51b81526004016105bc90611ced565b6115266119fa565b601054610100900460ff1661156b5760405162461bcd60e51b815260206004820152600b60248201526a139bdd081cda1a5c1c195960aa1b60448201526064016105bc565b6010546301000000900460ff16156115955760405162461bcd60e51b81526004016105bc90611da1565b601054600160201b900460ff16156115df5760405162461bcd60e51b815260206004820152600d60248201526c556e646572206469737075746560981b60448201526064016105bc565b600b5442116116265760405162461bcd60e51b8152602060048201526013602482015272111958591b1a5b99481b9bdd081c185cdcd959606a1b60448201526064016105bc565b600880546000918290556010805466ff0000ff000000191666050000010000001790556002546040519192916001600160a01b039091169083905b60006040518083038185875af1925050503d806000811461169e576040519150601f19603f3d011682016040523d82523d6000602084013e6116a3565b606091505b50509050806116e65760405162461bcd60e51b815260206004820152600f60248201526e151c985b9cd9995c8819985a5b1959608a1b60448201526064016105bc565b50506109a26001600055565b6001546001600160a01b0316331461171c5760405162461bcd60e51b81526004016105bc90611bf2565b601054600160201b900460ff16156117465760405162461bcd60e51b81526004016105bc90611ced565b61174e6119fa565b600b5442116117955760405162461bcd60e51b8152602060048201526013602482015272111958591b1a5b99481b9bdd081c185cdcd959606a1b60448201526064016105bc565b601054610100900460ff16156117df5760405162461bcd60e51b815260206004820152600f60248201526e105b1c9958591e481cda1a5c1c1959608a1b60448201526064016105bc565b60105460ff1661181e5760405162461bcd60e51b815260206004820152600a602482015269139bdd08199d5b99195960b21b60448201526064016105bc565b600880546000909155601080546007919060ff60301b1916600160301b8302179055506001546040516000916001600160a01b0316908390611661565b6002546001600160a01b031633146118855760405162461bcd60e51b81526004016105bc90611d7d565b601054600160201b900460ff16156118af5760405162461bcd60e51b81526004016105bc90611ced565b60105460ff166118fa5760405162461bcd60e51b8152602060048201526016602482015275141c9bd91d58dd1a5bdb881b9bdd081cdd185c9d195960521b60448201526064016105bc565b601054610100900460ff16156119445760405162461bcd60e51b815260206004820152600f60248201526e105b1c9958591e481cda1a5c1c1959608a1b60448201526064016105bc565b60008151116119895760405162461bcd60e51b8152602060048201526011602482015270151c9858dada5b99c81c995c5d5a5c9959607a1b60448201526064016105bc565b600c6119958382611e2e565b50600d6119a28282611e2e565b506010805466ff00000000ff00191666030000000001001790556040517fb6462dcdfb1c84065533d5eef8ad89ff3d6755d584c1e1173765287462f2f628906119ee9084908490611eed565b60405180910390a15050565b600260005403611a1d57604051633ee5aeb560e01b815260040160405180910390fd5b6002600055565b634e487b7160e01b600052602160045260246000fd5b6020810160088310611a5c57634e487b7160e01b600052602160045260246000fd5b91905290565b6000815180845260005b81811015611a8857602081850181015186830182015201611a6c565b506000602082860101526020601f19601f83011685010191505092915050565b602081526000611abb6020830184611a62565b9392505050565b600060208284031215611ad457600080fd5b81358015158114611abb57600080fd5b634e487b7160e01b600052604160045260246000fd5b600082601f830112611b0b57600080fd5b813567ffffffffffffffff811115611b2557611b25611ae4565b604051601f8201601f19908116603f0116810167ffffffffffffffff81118282101715611b5457611b54611ae4565b604052818152838201602001851015611b6c57600080fd5b816020850160208301376000918101602001919091529392505050565b60008060408385031215611b9c57600080fd5b823567ffffffffffffffff811115611bb357600080fd5b611bbf85828601611afa565b925050602083013567ffffffffffffffff811115611bdc57600080fd5b611be885828601611afa565b9150509250929050565b6020808252600990820152682737ba10313abcb2b960b91b604082015260600190565b600181811c90821680611c2957607f821691505b602082108103611c4957634e487b7160e01b600052602260045260246000fd5b50919050565b6001600160a01b03831681526040602082015281546000908190611c7281611c15565b8060408601526001821660008114611c915760018114611cad57611ce1565b60ff1983166060870152606082151560051b8701019350611ce1565b86600052602060002060005b83811015611cd857815488820160600152600190910190602001611cb9565b87016060019450505b50919695505050505050565b6020808252600e908201526d446973707574652061637469766560901b604082015260600190565b634e487b7160e01b600052601160045260246000fd5b8082028115828204841417611d4257611d42611d15565b92915050565b600082611d6557634e487b7160e01b600052601260045260246000fd5b500490565b81810381811115611d4257611d42611d15565b6020808252600a90820152692737ba1039b2b63632b960b11b604082015260600190565b602080825260119082015270105b1c9958591e4818dbdb5c1b195d1959607a1b604082015260600190565b80820180821115611d4257611d42611d15565b601f821115611e2957806000526020600020601f840160051c81016020851015611e065750805b601f840160051c820191505b81811015611e265760008155600101611e12565b50505b505050565b815167ffffffffffffffff811115611e4857611e48611ae4565b611e5c81611e568454611c15565b84611ddf565b6020601f821160018114611e905760008315611e785750848201515b600019600385901b1c1916600184901b178455611e26565b600084815260208120601f198516915b82811015611ec05787850151825560209485019460019092019101611ea0565b5084821015611ede5786840151600019600387901b60f8161c191681555b50505050600190811b01905550565b604081526000611f006040830185611a62565b8281036020840152611f128185611a62565b9594505050505056fea26469706673582212206a441e69feb667d871148b4415fe452cd182e375ba836f76e75f8e17e8b2e78064736f6c634300081e0033",
  "linkReferences": {},
  "deployedLinkReferences": {}
}