{
  "address": "0x75bB67D2E2707fAB568259d40BCdC11653C2EdDf",
  "abi": [
    {
      "inputs": [],
      "stateMutability": "nonpayable",
      "type": "constructor"
    },
    {
      "inputs": [],
      "name": "InvalidInitialization",
      "type": "error"
    },
    {
      "inputs": [],
      "name": "NotInitializing",
      "type": "error"
    },
    {
      "inputs": [],
      "name": "ReentrancyGuardReentrantCall",
      "type": "error"
    },
    {
      "anonymous": false,
      "inputs": [
        {
          "indexed": false,
          "internalType": "uint256",
          "name": "amount",
          "type": "uint256"
        }
      ],
      "name": "AfterDeliverPaymentReleased",
      "type": "event"
    },
    {
      "anonymous": false,
      "inputs": [
        {
          "indexed": true,
          "internalType": "address",
          "name": "buyer",
          "type": "address"
        }
      ],
      "name": "ContractCancelled",
      "type": "event"
    },
    {
      "anonymous": false,
      "inputs": [
        {
          "indexed": true,
          "internalType": "address",
          "name": "raisedBy",
          "type": "address"
        }
      ],
      "name": "DisputeRaised",
      "type": "event"
    },
    {
      "anonymous": false,
      "inputs": [
        {
          "indexed": false,
          "internalType": "bool",
          "name": "releasedToSeller",
          "type": "bool"
        }
      ],
      "name": "DisputeResolved",
      "type": "event"
    },
    {
      "anonymous": false,
      "inputs": [
        {
          "indexed": true,
          "internalType": "address",
          "name": "buyer",
          "type": "address"
        },
        {
          "indexed": true,
          "internalType": "address",
          "name": "seller",
          "type": "address"
        },
        {
          "indexed": false,
          "internalType": "address",
          "name": "escrowAddress",
          "type": "address"
        },
        {
          "indexed": false,
          "internalType": "uint256",
          "name": "totalAmount",
          "type": "uint256"
        },
        {
          "indexed": false,
          "internalType": "string",
          "name": "poCid",
          "type": "string"
        }
      ],
      "name": "EscrowCreated",
      "type": "event"
    },
    {
      "anonymous": false,
      "inputs": [
        {
          "indexed": false,
          "internalType": "uint256",
          "name": "amount",
          "type": "uint256"
        }
      ],
      "name": "FinalPaymentReleased",
      "type": "event"
    },
    {
      "anonymous": false,
      "inputs": [
        {
          "indexed": false,
          "internalType": "uint64",
          "name": "version",
          "type": "uint64"
        }
      ],
      "name": "Initialized",
      "type": "event"
    },
    {
      "anonymous": false,
      "inputs": [
        {
          "indexed": false,
          "internalType": "string",
          "name": "provider",
          "type": "string"
        },
        {
          "indexed": false,
          "internalType": "string",
          "name": "trackingNumber",
          "type": "string"
        }
      ],
      "name": "MarkedShipped",
      "type": "event"
    },
    {
      "anonymous": false,
      "inputs": [],
      "name": "ProductionFinished",
      "type": "event"
    },
    {
      "anonymous": false,
      "inputs": [
        {
          "indexed": false,
          "internalType": "uint256",
          "name": "amount",
          "type": "uint256"
        }
      ],
      "name": "ProductionPaymentReleased",
      "type": "event"
    },
    {
      "anonymous": false,
      "inputs": [
        {
          "indexed": false,
          "internalType": "string",
          "name": "cid",
          "type": "string"
        }
      ],
      "name": "ProductionUpdate",
      "type": "event"
    },
    {
      "anonymous": false,
      "inputs": [
        {
          "indexed": true,
          "internalType": "address",
          "name": "seller",
          "type": "address"
        },
        {
          "indexed": false,
          "internalType": "string",
          "name": "poCid",
          "type": "string"
        }
      ],
      "name": "SellerAccepted",
      "type": "event"
    },
    {
      "inputs": [],
      "name": "AfterDeliverAmount",
      "outputs": [
        {
          "internalType": "uint256",
          "name": "",
          "type": "uint256"
        }
      ],
      "stateMutability": "view",
      "type": "function"
    },
    {
      "inputs": [],
      "name": "BuyerclaimAfterDeadline",
      "outputs": [],
      "stateMutability": "nonpayable",
      "type": "function"
    },
    {
      "inputs": [],
      "name": "acceptContract",
      "outputs": [],
      "stateMutability": "nonpayable",
      "type": "function"
    },
    {
      "inputs": [],
      "name": "arbitrator",
      "outputs": [
        {
          "internalType": "address",
          "name": "",
          "type": "address"
        }
      ],
      "stateMutability": "view",
      "type": "function"
    },
    {
      "inputs": [],
      "name": "buyer",
      "outputs": [
        {
          "internalType": "address",
          "name": "",
          "type": "address"
        }
      ],
      "stateMutability": "view",
      "type": "function"
    },
    {
      "inputs": [],
      "name": "buyerCompletecontract",
      "outputs": [],
      "stateMutability": "nonpayable",
      "type": "function"
    },
    {
      "inputs": [],
      "name": "cancelContract",
      "outputs": [],
      "stateMutability": "nonpayable",
      "type": "function"
    },
    {
      "inputs": [],
      "name": "completed",
      "outputs": [
        {
          "internalType": "bool",
          "name": "",
          "type": "bool"
        }
      ],
      "stateMutability": "view",
      "type": "function"
    },
    {
      "inputs": [],
      "name": "confirmDelivery",
      "outputs": [],
      "stateMutability": "nonpayable",
      "type": "function"
    },
    {
      "inputs": [],
      "name": "createdAt",
      "outputs": [
        {
          "internalType": "uint256",
          "name": "",
          "type": "uint256"
        }
      ],
      "stateMutability": "view",
      "type": "function"
    },
    {
      "inputs": [],
      "name": "delivered",
      "outputs": [
        {
          "internalType": "bool",
          "name": "",
          "type": "bool"
        }
      ],
      "stateMutability": "view",
      "type": "function"
    },
    {
      "inputs": [],
      "name": "deliveredAt",
      "outputs": [
        {
          "internalType": "uint256",
          "name": "",
          "type": "uint256"
        }
      ],
      "stateMutability": "view",
      "type": "function"
    },
    {
      "inputs": [],
      "name": "deliveryDeadline",
      "outputs": [
        {
          "internalType": "uint256",
          "name": "",
          "type": "uint256"
        }
      ],
      "stateMutability": "view",
      "type": "function"
    },
    {
      "inputs": [],
      "name": "depositAndStartProduction",
      "outputs": [],
      "stateMutability": "payable",
      "type": "function"
    },
    {
      "inputs": [],
      "name": "deposited",
      "outputs": [
        {
          "internalType": "bool",
          "name": "",
          "type": "bool"
        }
      ],
      "stateMutability": "view",
      "type": "function"
    },
    {
      "inputs": [],
      "name": "disputeReason",
      "outputs": [
        {
          "internalType": "string",
          "name": "",
          "type": "string"
        }
      ],
      "stateMutability": "view",
      "type": "function"
    },
    {
      "inputs": [],
      "name": "disputed",
      "outputs": [
        {
          "internalType": "bool",
          "name": "",
          "type": "bool"
        }
      ],
      "stateMutability": "view",
      "type": "function"
    },
    {
      "inputs": [],
      "name": "factory",
      "outputs": [
        {
          "internalType": "address",
          "name": "",
          "type": "address"
        }
      ],
      "stateMutability": "view",
      "type": "function"
    },
    {
      "inputs": [],
      "name": "finishProduction",
      "outputs": [],
      "stateMutability": "nonpayable",
      "type": "function"
    },
    {
      "inputs": [],
      "name": "getProductionLogs",
      "outputs": [
        {
          "internalType": "string[]",
          "name": "",
          "type": "string[]"
        }
      ],
      "stateMutability": "view",
      "type": "function"
    },
    {
      "inputs": [
        {
          "internalType": "address",
          "name": "_buyer",
          "type": "address"
        },
        {
          "internalType": "address",
          "name": "_seller",
          "type": "address"
        },
        {
          "internalType": "address",
          "name": "_arbitrator",
          "type": "address"
        },
        {
          "internalType": "uint256",
          "name": "_totalAmount",
          "type": "uint256"
        },
        {
          "internalType": "string",
          "name": "_itemName",
          "type": "string"
        },
        {
          "internalType": "uint256",
          "name": "_quantity",
          "type": "uint256"
        },
        {
          "internalType": "uint256",
          "name": "_deliveryDurationSeconds",
          "type": "uint256"
        },
        {
          "internalType": "string",
          "name": "_poCid",
          "type": "string"
        },
        {
          "internalType": "uint8",
          "name": "_milestone1Pct",
          "type": "uint8"
        },
        {
          "internalType": "uint8",
          "name": "_milestone2Pct",
          "type": "uint8"
        }
      ],
      "name": "initialize",
      "outputs": [],
      "stateMutability": "nonpayable",
      "type": "function"
    },
    {
      "inputs": [],
      "name": "itemName",
      "outputs": [
        {
          "internalType": "string",
          "name": "",
          "type": "string"
        }
      ],
      "stateMutability": "view",
      "type": "function"
    },
    {
      "inputs": [
        {
          "internalType": "string",
          "name": "_shippingProvider",
          "type": "string"
        },
        {
          "internalType": "string",
          "name": "_trackingNumber",
          "type": "string"
        },
        {
          "internalType": "string",
          "name": "_shippingCid",
          "type": "string"
        },
        {
          "internalType": "string[]",
          "name": "_productionLogs",
          "type": "string[]"
        }
      ],
      "name": "markShipped",
      "outputs": [],
      "stateMutability": "nonpayable",
      "type": "function"
    },
    {
      "inputs": [],
      "name": "milestone1Pct",
      "outputs": [
        {
          "internalType": "uint8",
          "name": "",
          "type": "uint8"
        }
      ],
      "stateMutability": "view",
      "type": "function"
    },
    {
      "inputs": [],
      "name": "milestone2Pct",
      "outputs": [
        {
          "internalType": "uint8",
          "name": "",
          "type": "uint8"
        }
      ],
      "stateMutability": "view",
      "type": "function"
    },
    {
      "inputs": [],
      "name": "poCid",
      "outputs": [
        {
          "internalType": "string",
          "name": "",
          "type": "string"
        }
      ],
      "stateMutability": "view",
      "type": "function"
    },
    {
      "inputs": [],
      "name": "productionAmount",
      "outputs": [
        {
          "internalType": "uint256",
          "name": "",
          "type": "uint256"
        }
      ],
      "stateMutability": "view",
      "type": "function"
    },
    {
      "inputs": [
        {
          "internalType": "uint256",
          "name": "",
          "type": "uint256"
        }
      ],
      "name": "productionLogs",
      "outputs": [
        {
          "internalType": "string",
          "name": "",
          "type": "string"
        }
      ],
      "stateMutability": "view",
      "type": "function"
    },
    {
      "inputs": [],
      "name": "quantity",
      "outputs": [
        {
          "internalType": "uint256",
          "name": "",
          "type": "uint256"
        }
      ],
      "stateMutability": "view",
      "type": "function"
    },
    {
      "inputs": [
        {
          "internalType": "string",
          "name": "_reasonCid",
          "type": "string"
        }
      ],
      "name": "raiseDispute",
      "outputs": [],
      "stateMutability": "nonpayable",
      "type": "function"
    },
    {
      "inputs": [],
      "name": "remainingAmount",
      "outputs": [
        {
          "internalType": "uint256",
          "name": "",
          "type": "uint256"
        }
      ],
      "stateMutability": "view",
      "type": "function"
    },
    {
      "inputs": [
        {
          "internalType": "bool",
          "name": "releaseToSeller",
          "type": "bool"
        }
      ],
      "name": "resolveDispute",
      "outputs": [],
      "stateMutability": "nonpayable",
      "type": "function"
    },
    {
      "inputs": [],
      "name": "seller",
      "outputs": [
        {
          "internalType": "address",
          "name": "",
          "type": "address"
        }
      ],
      "stateMutability": "view",
      "type": "function"
    },
    {
      "inputs": [],
      "name": "sellerAccepted",
      "outputs": [
        {
          "internalType": "bool",
          "name": "",
          "type": "bool"
        }
      ],
      "stateMutability": "view",
      "type": "function"
    },
    {
      "inputs": [],
      "name": "sellerClaimAfterDeadline",
      "outputs": [],
      "stateMutability": "nonpayable",
      "type": "function"
    },
    {
      "inputs": [],
      "name": "sellerClaimFinalPayment",
      "outputs": [],
      "stateMutability": "nonpayable",
      "type": "function"
    },
    {
      "inputs": [],
      "name": "shipped",
      "outputs": [
        {
          "internalType": "bool",
          "name": "",
          "type": "bool"
        }
      ],
      "stateMutability": "view",
      "type": "function"
    },
    {
      "inputs": [],
      "name": "shippingCid",
      "outputs": [
        {
          "internalType": "string",
          "name": "",
          "type": "string"
        }
      ],
      "stateMutability": "view",
      "type": "function"
    },
    {
      "inputs": [],
      "name": "shippingProvider",
      "outputs": [
        {
          "internalType": "string",
          "name": "",
          "type": "string"
        }
      ],
      "stateMutability": "view",
      "type": "function"
    },
    {
      "inputs": [],
      "name": "status",
      "outputs": [
        {
          "internalType": "enum SupplyChainEscrow.Status",
          "name": "",
          "type": "uint8"
        }
      ],
      "stateMutability": "view",
      "type": "function"
    },
    {
      "inputs": [],
      "name": "totalAmount",
      "outputs": [
        {
          "internalType": "uint256",
          "name": "",
          "type": "uint256"
        }
      ],
      "stateMutability": "view",
      "type": "function"
    },
    {
      "inputs": [],
      "name": "trackingNumber",
      "outputs": [
        {
          "internalType": "string",
          "name": "",
          "type": "string"
        }
      ],
      "stateMutability": "view",
      "type": "function"
    },
    {
      "stateMutability": "payable",
      "type": "receive"
    }
  ],
  "transactionHash": "0xf486d87f5ff5d5ed17ea48a2e221e8a31b300184a3172dfa594fa510ac6e963b",
  "args": [],
  "numDeployments": 1,
  "solcInputHash": "3f38b3aab43ae23546a345cc072cf25a",
  "bytecode": "0x6080604052348015600f57600080fd5b506001600055601b601f565b60cf565b7ff0c57e16840df040f15088dc2f81fe391c3923bec73e23a9662efc9c229c6a00805468010000000000000000900460ff1615606e5760405163f92ee8a960e01b815260040160405180910390fd5b80546001600160401b039081161460cc5780546001600160401b0319166001600160401b0390811782556040519081527fc7f505b2f371ae2175ee4913f4499e1f2633a7b5936321eed1cdaeb6115181d29060200160405180910390a15b50565b612d0d806100de6000396000f3fe6080604052600436106102555760003560e01c806371d72aef11610139578063a38c46a4116100b6578063c45a01551161007a578063c45a015514610673578063cf09e0d014610693578063dcdb9888146106a9578063eda5998f146106be578063eef49ee3146106d3578063f439a3c3146106ed57600080fd5b8063a38c46a4146105e9578063a50a1fe614610609578063ba446ae91461061f578063bbdfbfba1461063e578063bcf532581461065e57600080fd5b80639317ec6f116100fd5780639317ec6f146105655780639394acb51461058757806393b891c71461059d5780639d9a7fe9146105b25780639e7d9d28146105d357600080fd5b806371d72aef146104e9578063725a3b4b146105085780637bf6c104146105285780637f6762191461053d57806389e1e82a1461054557600080fd5b8063416af8df116101d2578063619d267111610196578063619d26711461043c57806361b60f6b1461045157806362220eb014610474578063646ce5a8146104945780636cc6cde1146104a95780637150d8ae146104c957600080fd5b8063416af8df146103d2578063526ff16f146103e757806356e444c7146103fc57806357549eb0146104115780635e10177b1461042757600080fd5b80632b68bb2d116102195780632b68bb2d146103375780633d3ac5b61461034e5780633fca8f621461036457806340401fea146103915780634056733b146103a657600080fd5b80630695c46c1461026157806308551a531461029757806317fc45e2146102cf5780631a39d8ef146102f3578063200d2ed21461030957600080fd5b3661025c57005b600080fd5b34801561026d57600080fd5b5060155461028290600160201b900460ff1681565b60405190151581526020015b60405180910390f35b3480156102a357600080fd5b506002546102b7906001600160a01b031681565b6040516001600160a01b03909116815260200161028e565b3480156102db57600080fd5b506102e5600b5481565b60405190815260200161028e565b3480156102ff57600080fd5b506102e560055481565b34801561031557600080fd5b5060155461032a90600160301b900460ff1681565b60405161028e91906124cf565b34801561034357600080fd5b5061034c610702565b005b34801561035a57600080fd5b506102e560075481565b34801561037057600080fd5b5061038461037f3660046124f7565b61086e565b60405161028e9190612556565b34801561039d57600080fd5b5061038461091a565b3480156103b257600080fd5b506009546103c09060ff1681565b60405160ff909116815260200161028e565b3480156103de57600080fd5b50610384610927565b3480156103f357600080fd5b50610384610934565b34801561040857600080fd5b5061034c610941565b34801561041d57600080fd5b506102e5600c5481565b34801561043357600080fd5b5061034c610b94565b34801561044857600080fd5b5061034c610dbf565b34801561045d57600080fd5b506015546102829065010000000000900460ff1681565b34801561048057600080fd5b5061034c61048f366004612652565b610efb565b3480156104a057600080fd5b506103846113dc565b3480156104b557600080fd5b506003546102b7906001600160a01b031681565b3480156104d557600080fd5b506001546102b7906001600160a01b031681565b3480156104f557600080fd5b506009546103c090610100900460ff1681565b34801561051457600080fd5b5061034c61052336600461272b565b6113e9565b34801561053457600080fd5b506103846114d8565b61034c6114e5565b34801561055157600080fd5b5061034c610560366004612767565b6117f1565b34801561057157600080fd5b5061057a611aa2565b60405161028e9190612789565b34801561059357600080fd5b506102e560065481565b3480156105a957600080fd5b5061034c611b7b565b3480156105be57600080fd5b50601554610282906301000000900460ff1681565b3480156105df57600080fd5b506102e560135481565b3480156105f557600080fd5b5061034c6106043660046127ee565b611c90565b34801561061557600080fd5b506102e560085481565b34801561062b57600080fd5b5060155461028290610100900460ff1681565b34801561064a57600080fd5b506015546102829062010000900460ff1681565b34801561066a57600080fd5b5061034c611f0d565b34801561067f57600080fd5b506004546102b7906001600160a01b031681565b34801561069f57600080fd5b506102e560145481565b3480156106b557600080fd5b506103846120f3565b3480156106ca57600080fd5b5061034c612100565b3480156106df57600080fd5b506015546102829060ff1681565b3480156106f957600080fd5b5061034c612328565b6001546001600160a01b031633148061072557506002546001600160a01b031633145b6107675760405162461bcd60e51b815260206004820152600e60248201526d139bdd08185d5d1a1bdc9a5e995960921b60448201526064015b60405180910390fd5b60155460ff16156107ab5760405162461bcd60e51b815260206004820152600e60248201526d105b1c9958591e48199d5b99195960921b604482015260640161075e565b6000601554600160301b900460ff1660088111156107cb576107cb6124b9565b1461082b5760405162461bcd60e51b815260206004820152602a60248201527f43616e6e6f742063616e63656c206f6e6365206163636570746564206f7220696044820152696e2070726f677265737360b01b606482015260840161075e565b6015805460ff60301b1916660800000000000017905560405133907f127a6f1a35dab59c491a32a71869783bdb5702256f5709cb1e60f322ac1529d490600090a2565b6011818154811061087e57600080fd5b9060005260206000200160009150905080546108999061293d565b80601f01602080910402602001604051908101604052809291908181526020018280546108c59061293d565b80156109125780601f106108e757610100808354040283529160200191610912565b820191906000526020600020905b8154815290600101906020018083116108f557829003601f168201915b505050505081565b600a80546108999061293d565b600f80546108999061293d565b600e80546108999061293d565b6001546001600160a01b0316331461096b5760405162461bcd60e51b815260040161075e90612977565b61097361248f565b60155462010000900460ff166109c45760405162461bcd60e51b8152602060048201526016602482015275125d195b481b9bdd081e595d0819195b1a5d995c995960521b604482015260640161075e565b6015546301000000900460ff1615610a1e5760405162461bcd60e51b815260206004820152601a60248201527f436f6e747261637420616c726561647920636f6d706c65746564000000000000604482015260640161075e565b600880546000918290556015805466ff0000ff000000191666060000010000001790556002546040519192916001600160a01b039091169083908381818185875af1925050503d8060008114610a90576040519150601f19603f3d011682016040523d82523d6000602084013e610a95565b606091505b5050905080610ae65760405162461bcd60e51b815260206004820152601c60248201527f4661696c656420746f2073656e642066696e616c207061796d656e7400000000604482015260640161075e565b600480546001546040516378da4ce360e01b81526001600160a01b03928316936378da4ce393610b1b931691600f9101612a1d565b600060405180830381600087803b158015610b3557600080fd5b505af1158015610b49573d6000803e3d6000fd5b505050507f38485e5f70532849a6ff078e9f0b0abdb13611aa6731e1fcf542912d6980efb282604051610b7e91815260200190565b60405180910390a15050610b926001600055565b565b6001546001600160a01b03163314610bbe5760405162461bcd60e51b815260040161075e90612977565b610bc661248f565b601554600160201b900460ff1615610bf05760405162461bcd60e51b815260040161075e90612a41565b601554610100900460ff16610c355760405162461bcd60e51b815260206004820152600b60248201526a139bdd081cda1a5c1c195960aa1b604482015260640161075e565b60155462010000900460ff1615610c825760405162461bcd60e51b8152602060048201526011602482015270105b1c9958591e4811195b1a5d995c9959607a1b604482015260640161075e565b600954600554600091606491610ca091610100900460ff1690612a7f565b610caa9190612a9c565b6007819055600854909150610cc0908290612abe565b600855601580544260135566ff000000ff0000191666050000000100001790556002546040516000916001600160a01b03169083908381818185875af1925050503d8060008114610d2d576040519150601f19603f3d011682016040523d82523d6000602084013e610d32565b606091505b5050905080610d8f5760405162461bcd60e51b8152602060048201526024808201527f4661696c656420746f2073656e642061667465722064656c69766572207061796044820152631b595b9d60e21b606482015260840161075e565b6040518281527f2dfdb966e7190b3f914db51ef79ecbb965b770a4c249fa92121a9f42f6be35fa90602001610b7e565b6002546001600160a01b03163314610de95760405162461bcd60e51b815260040161075e90612ad1565b6000601554600160301b900460ff166008811115610e0957610e096124b9565b14610e565760405162461bcd60e51b815260206004820152601f60248201527f416c7265616479206163636570746564206f7220696e2070726f677265737300604482015260640161075e565b601454610e669062015180612af5565b421115610ea55760405162461bcd60e51b815260206004820152600d60248201526c13d999995c88195e1c1a5c9959609a1b604482015260640161075e565b6015805466ffff00000000001916660101000000000017905560405133907f8b248780a3965b301676ac516569ae52492fec2bed4fc0c92c13b21ecc3a285690610ef190600f90612b08565b60405180910390a2565b7ff0c57e16840df040f15088dc2f81fe391c3923bec73e23a9662efc9c229c6a008054600160401b810460ff1615906001600160401b0316600081158015610f405750825b90506000826001600160401b03166001148015610f5c5750303b155b905081158015610f6a575080155b15610f885760405163f92ee8a960e01b815260040160405180910390fd5b845467ffffffffffffffff191660011785558315610fb257845460ff60401b1916600160401b1785555b6001600160a01b038f16610ff85760405162461bcd60e51b815260206004820152600d60248201526c24b73b30b634b210313abcb2b960991b604482015260640161075e565b6001600160a01b038e1661103f5760405162461bcd60e51b815260206004820152600e60248201526d24b73b30b634b21039b2b63632b960911b604482015260640161075e565b60008c116110845760405162461bcd60e51b81526020600482015260126024820152710416d6f756e74206d757374206265203e20360741b604482015260640161075e565b60008a116110cb5760405162461bcd60e51b815260206004820152601460248201527305175616e74697479206d757374206265203e20360641b604482015260640161075e565b6000891161110e5760405162461bcd60e51b815260206004820152601060248201526f24b73b30b634b210323ab930ba34b7b760811b604482015260640161075e565b600a8760ff1610158015611126575060328760ff1611155b61115f5760405162461bcd60e51b815260206004820152600a6024820152694d313a2031302d35302560b01b604482015260640161075e565b600a8660ff1610158015611177575060468660ff1611155b6111b05760405162461bcd60e51b815260206004820152600a6024820152694d323a2031302d37302560b01b604482015260640161075e565b605a6111bc8789612b1b565b60ff1611156112015760405162461bcd60e51b81526020600482015260116024820152704d33206d757374206265203e3d2031302560781b604482015260640161075e565b8e600160006101000a8154816001600160a01b0302191690836001600160a01b031602179055508d600260006101000a8154816001600160a01b0302191690836001600160a01b031602179055508c600360006101000a8154816001600160a01b0302191690836001600160a01b0316021790555033600460006101000a8154816001600160a01b0302191690836001600160a01b031602179055508b60058190555060006006819055508b60088190555086600960006101000a81548160ff021916908360ff16021790555085600960016101000a81548160ff021916908360ff1602179055508a600a90816112f89190612b83565b50600b8a90556113088942612af5565b600c5542601455600f61131b8982612b83565b50601580546000919060ff60301b1916600160301b8302179055508d6001600160a01b03168f6001600160a01b03167fce1e6bf60de0cb83b0dc94c84bb59699ad0638667144f8d343087a248d77d648308f8c60405161137d93929190612c41565b60405180910390a383156113cb57845460ff60401b19168555604051600181527fc7f505b2f371ae2175ee4913f4499e1f2633a7b5936321eed1cdaeb6115181d29060200160405180910390a15b505050505050505050505050505050565b600d80546108999061293d565b6001546001600160a01b031633148061140c57506002546001600160a01b031633145b6114495760405162461bcd60e51b815260206004820152600e60248201526d139bdd08185d5d1a1bdc9a5e995960921b604482015260640161075e565b6015546301000000900460ff16156114735760405162461bcd60e51b815260040161075e90612c71565b6015805464ff000000001916600160201b17905560126114938282612b83565b506015805460ff60301b1916660700000000000017905560405133907f0b3cd97b16a08a5c77357c276d248827ad32dfd56060f7c55d6255537ba3d96290600090a250565b601280546108999061293d565b6001546001600160a01b0316331461150f5760405162461bcd60e51b815260040161075e90612977565b61151761248f565b60155465010000000000900460ff166115725760405162461bcd60e51b815260206004820152601860248201527f53656c6c6572206d757374206163636570742066697273740000000000000000604482015260640161075e565b60155460ff16156115b95760405162461bcd60e51b8152602060048201526011602482015270105b1c9958591e4819195c1bdcda5d1959607a1b604482015260640161075e565b60055434146116035760405162461bcd60e51b815260206004820152601660248201527514d95b9908195e1858dd081d1bdd185b105b5bdd5b9d60521b604482015260640161075e565b6001601554600160301b900460ff166008811115611623576116236124b9565b146116705760405162461bcd60e51b815260206004820181905260248201527f4d7573742062652061636365707465642062792073656c6c6572206669727374604482015260640161075e565b6014546116809062015180612af5565b4211156116bf5760405162461bcd60e51b815260206004820152600d60248201526c13d999995c88195e1c1a5c9959609a1b604482015260640161075e565b6009546005546000916064916116d89160ff1690612a7f565b6116e29190612a9c565b60068190556005549091506116f8908290612abe565b6008556015805466ff0000000000ff191666020000000000011790556002546040516000916001600160a01b03169083908381818185875af1925050503d8060008114611761576040519150601f19603f3d011682016040523d82523d6000602084013e611766565b606091505b50509050806117c15760405162461bcd60e51b815260206004820152602160248201527f4661696c656420746f2073656e642070726f64756374696f6e207061796d656e6044820152601d60fa1b606482015260840161075e565b6040518281527f9a44608bcd034a9075640dd9f85f303467fa2fb447f3220e8268ab43f8e062eb90602001610b7e565b6003546001600160a01b0316331461183c5760405162461bcd60e51b815260206004820152600e60248201526d2737ba1030b93134ba3930ba37b960911b604482015260640161075e565b61184461248f565b601554600160201b900460ff1661188a5760405162461bcd60e51b815260206004820152600a6024820152694e6f206469737075746560b01b604482015260640161075e565b600854806118d05760405162461bcd60e51b81526020600482015260136024820152724e6f2066756e647320746f2072656c6561736560681b604482015260640161075e565b60006008556015805464ff000000001916905581156119ab576015805466ff0000ff000000191666060000010000001790556002546040516000916001600160a01b03169083908381818185875af1925050503d806000811461194f576040519150601f19603f3d011682016040523d82523d6000602084013e611954565b606091505b50509050806119a55760405162461bcd60e51b815260206004820152601860248201527f4661696c656420746f2073656e6420746f2073656c6c65720000000000000000604482015260640161075e565b50611a5f565b6015805460ff60301b191666080000000000001790556001546040516000916001600160a01b03169083908381818185875af1925050503d8060008114611a0e576040519150601f19603f3d011682016040523d82523d6000602084013e611a13565b606091505b5050905080611a5d5760405162461bcd60e51b81526020600482015260166024820152752330b4b632b2103a37903932b33ab73210313abcb2b960511b604482015260640161075e565b505b60405182151581527f8015c5005d9ad5d85ca80d3f894f08e0159277704c54166e5cff108800fa80cd9060200160405180910390a150611a9f6001600055565b50565b60606011805480602002602001604051908101604052809291908181526020016000905b82821015611b72578382906000526020600020018054611ae59061293d565b80601f0160208091040260200160405190810160405280929190818152602001828054611b119061293d565b8015611b5e5780601f10611b3357610100808354040283529160200191611b5e565b820191906000526020600020905b815481529060010190602001808311611b4157829003601f168201915b505050505081526020019060010190611ac6565b50505050905090565b6002546001600160a01b03163314611ba55760405162461bcd60e51b815260040161075e90612ad1565b601554600160201b900460ff1615611bcf5760405162461bcd60e51b815260040161075e90612a41565b6002601554600160301b900460ff166008811115611bef57611bef6124b9565b14611c4f5760405162461bcd60e51b815260206004820152602a60248201527f50726f64756374696f6e206e6f742073746172746564206f7220616c726561646044820152691e48199a5b9a5cda195960b21b606482015260840161075e565b6015805460ff60301b191666030000000000001790556040517f781e2ceec09322c77ecfac5ec2a4060d14c6ce905d733b5313732be934f439f790600090a1565b6002546001600160a01b03163314611cba5760405162461bcd60e51b815260040161075e90612ad1565b601554600160201b900460ff1615611ce45760405162461bcd60e51b815260040161075e90612a41565b6003601554600160301b900460ff166008811115611d0457611d046124b9565b14611d5b5760405162461bcd60e51b815260206004820152602160248201527f50726f64756374696f6e206d7573742062652066696e697368656420666972736044820152601d60fa1b606482015260840161075e565b601554610100900460ff1615611da55760405162461bcd60e51b815260206004820152600f60248201526e105b1c9958591e481cda1a5c1c1959608a1b604482015260640161075e565b6000835111611dea5760405162461bcd60e51b8152602060048201526011602482015270151c9858dada5b99c81c995c5d5a5c9959607a1b604482015260640161075e565b600d611df68582612b83565b50600e611e038482612b83565b506010611e108382612b83565b5060005b8151811015611eb3576011828281518110611e3157611e31612c9c565b60209081029190910181015182546001810184556000938452919092200190611e5a9082612b83565b507f2f94469c930f78239164949b76d456603971fe911a8383b6007eb673c1b51e0d828281518110611e8e57611e8e612c9c565b6020026020010151604051611ea39190612556565b60405180910390a1600101611e14565b506015805466ff00000000ff00191666040000000001001790556040517fb6462dcdfb1c84065533d5eef8ad89ff3d6755d584c1e1173765287462f2f62890611eff9086908690612cb2565b60405180910390a150505050565b6002546001600160a01b03163314611f375760405162461bcd60e51b815260040161075e90612ad1565b601554600160201b900460ff1615611f615760405162461bcd60e51b815260040161075e90612a41565b611f6961248f565b60155462010000900460ff16611fb15760405162461bcd60e51b815260206004820152600d60248201526c139bdd0819195b1a5d995c9959609a1b604482015260640161075e565b6015546301000000900460ff1615611fdb5760405162461bcd60e51b815260040161075e90612c71565b601354611feb9062127500612af5565b42116120395760405162461bcd60e51b815260206004820152601860248201527f496e7370656374696f6e20706572696f64206163746976650000000000000000604482015260640161075e565b600880546000918290556015805466ff0000ff000000191666060000010000001790556002546040519192916001600160a01b039091169083908381818185875af1925050503d80600081146120ab576040519150601f19603f3d011682016040523d82523d6000602084013e6120b0565b606091505b5050905080610ae65760405162461bcd60e51b815260206004820152600f60248201526e151c985b9cd9995c8819985a5b1959608a1b604482015260640161075e565b601080546108999061293d565b6002546001600160a01b0316331461212a5760405162461bcd60e51b815260040161075e90612ad1565b601554600160201b900460ff16156121545760405162461bcd60e51b815260040161075e90612a41565b61215c61248f565b601554610100900460ff166121a15760405162461bcd60e51b815260206004820152600b60248201526a139bdd081cda1a5c1c195960aa1b604482015260640161075e565b6015546301000000900460ff16156121cb5760405162461bcd60e51b815260040161075e90612c71565b601554600160201b900460ff16156122155760405162461bcd60e51b815260206004820152600d60248201526c556e646572206469737075746560981b604482015260640161075e565b600c54421161225c5760405162461bcd60e51b8152602060048201526013602482015272111958591b1a5b99481b9bdd081c185cdcd959606a1b604482015260640161075e565b600880546000918290556015805466ff0000ff000000191666060000010000001790556002546040519192916001600160a01b039091169083905b60006040518083038185875af1925050503d80600081146122d4576040519150601f19603f3d011682016040523d82523d6000602084013e6122d9565b606091505b505090508061231c5760405162461bcd60e51b815260206004820152600f60248201526e151c985b9cd9995c8819985a5b1959608a1b604482015260640161075e565b5050610b926001600055565b6001546001600160a01b031633146123525760405162461bcd60e51b815260040161075e90612977565b601554600160201b900460ff161561237c5760405162461bcd60e51b815260040161075e90612a41565b61238461248f565b600c5442116123cb5760405162461bcd60e51b8152602060048201526013602482015272111958591b1a5b99481b9bdd081c185cdcd959606a1b604482015260640161075e565b601554610100900460ff16156124155760405162461bcd60e51b815260206004820152600f60248201526e105b1c9958591e481cda1a5c1c1959608a1b604482015260640161075e565b60155460ff166124545760405162461bcd60e51b815260206004820152600a602482015269139bdd08199d5b99195960b21b604482015260640161075e565b60088054600082556015805491929160ff60301b1916600160301b8302179055506001546040516000916001600160a01b0316908390612297565b6002600054036124b257604051633ee5aeb560e01b815260040160405180910390fd5b6002600055565b634e487b7160e01b600052602160045260246000fd5b60208101600983106124f157634e487b7160e01b600052602160045260246000fd5b91905290565b60006020828403121561250957600080fd5b5035919050565b6000815180845260005b818110156125365760208185018101518683018201520161251a565b506000602082860101526020601f19601f83011685010191505092915050565b6020815260006125696020830184612510565b9392505050565b80356001600160a01b038116811461258757600080fd5b919050565b634e487b7160e01b600052604160045260246000fd5b604051601f8201601f191681016001600160401b03811182821017156125ca576125ca61258c565b604052919050565b600082601f8301126125e357600080fd5b81356001600160401b038111156125fc576125fc61258c565b61260f601f8201601f19166020016125a2565b81815284602083860101111561262457600080fd5b816020850160208301376000918101602001919091529392505050565b803560ff8116811461258757600080fd5b6000806000806000806000806000806101408b8d03121561267257600080fd5b61267b8b612570565b995061268960208c01612570565b985061269760408c01612570565b975060608b0135965060808b01356001600160401b038111156126b957600080fd5b6126c58d828e016125d2565b96505060a08b0135945060c08b0135935060e08b01356001600160401b038111156126ef57600080fd5b6126fb8d828e016125d2565b93505061270b6101008c01612641565b915061271a6101208c01612641565b90509295989b9194979a5092959850565b60006020828403121561273d57600080fd5b81356001600160401b0381111561275357600080fd5b61275f848285016125d2565b949350505050565b60006020828403121561277957600080fd5b8135801515811461256957600080fd5b6000602082016020835280845180835260408501915060408160051b86010192506020860160005b828110156127e257603f198786030184526127cd858351612510565b945060209384019391909101906001016127b1565b50929695505050505050565b6000806000806080858703121561280457600080fd5b84356001600160401b0381111561281a57600080fd5b612826878288016125d2565b94505060208501356001600160401b0381111561284257600080fd5b61284e878288016125d2565b93505060408501356001600160401b0381111561286a57600080fd5b612876878288016125d2565b92505060608501356001600160401b0381111561289257600080fd5b8501601f810187136128a357600080fd5b80356001600160401b038111156128bc576128bc61258c565b8060051b6128cc602082016125a2565b9182526020818401810192908101908a8411156128e857600080fd5b6020850192505b8383101561292e5782356001600160401b0381111561290d57600080fd5b61291c8c6020838901016125d2565b835250602092830192909101906128ef565b979a9699509497505050505050565b600181811c9082168061295157607f821691505b60208210810361297157634e487b7160e01b600052602260045260246000fd5b50919050565b6020808252600990820152682737ba10313abcb2b960b91b604082015260600190565b600081546129a78161293d565b8085526001821680156129c157600181146129dd57612a14565b60ff1983166020870152602082151560051b8701019350612a14565b84600052602060002060005b83811015612a0b5781546020828a0101526001820191506020810190506129e9565b87016020019450505b50505092915050565b6001600160a01b038316815260406020820181905260009061275f9083018461299a565b6020808252600e908201526d446973707574652061637469766560901b604082015260600190565b634e487b7160e01b600052601160045260246000fd5b8082028115828204841417612a9657612a96612a69565b92915050565b600082612ab957634e487b7160e01b600052601260045260246000fd5b500490565b81810381811115612a9657612a96612a69565b6020808252600a90820152692737ba1039b2b63632b960b11b604082015260600190565b80820180821115612a9657612a96612a69565b602081526000612569602083018461299a565b60ff8181168382160190811115612a9657612a96612a69565b601f821115612b7e57806000526020600020601f840160051c81016020851015612b5b5750805b601f840160051c820191505b81811015612b7b5760008155600101612b67565b50505b505050565b81516001600160401b03811115612b9c57612b9c61258c565b612bb081612baa845461293d565b84612b34565b6020601f821160018114612be45760008315612bcc5750848201515b600019600385901b1c1916600184901b178455612b7b565b600084815260208120601f198516915b82811015612c145787850151825560209485019460019092019101612bf4565b5084821015612c325786840151600019600387901b60f8161c191681555b50505050600190811b01905550565b60018060a01b0384168152826020820152606060408201526000612c686060830184612510565b95945050505050565b602080825260119082015270105b1c9958591e4818dbdb5c1b195d1959607a1b604082015260600190565b634e487b7160e01b600052603260045260246000fd5b604081526000612cc56040830185612510565b8281036020840152612c68818561251056fea26469706673582212204d10efebca44bd12159560d2d6ea091de19a084625e65717712dfdd763d5aed464736f6c634300081e0033",
  "devdoc": {
    "errors": {
      "InvalidInitialization()": [
        {
          "details": "The contract is already initialized."
        }
      ],
      "NotInitializing()": [
        {
          "details": "The contract is not initializing."
        }
      ],
      "ReentrancyGuardReentrantCall()": [
        {
          "details": "Unauthorized reentrant call."
        }
      ]
    },
    "events": {
      "Initialized(uint64)": {
        "details": "Triggered when the contract has been initialized or reinitialized."
      }
    },
    "kind": "dev",
    "methods": {
      "constructor": {
        "custom:oz-upgrades-unsafe-allow": "constructor"
      },
      "initialize(address,address,address,uint256,string,uint256,uint256,string,uint8,uint8)": {
        "params": {
          "_deliveryDurationSeconds": "Delivery duration in seconds from now",
          "_milestone1Pct": "Percentage released on production start (10-50)",
          "_milestone2Pct": "Percentage released on delivery confirmation (10-70)"
        }
      }
    },
    "version": 1
  },
  "userdoc": {
    "kind": "user",
    "methods": {
      "acceptContract()": {
        "notice": "Seller accepts the terms and PO"
      },
      "buyerCompletecontract()": {
        "notice": "Buyer Completes contract after checking the machine/item are working"
      },
      "confirmDelivery()": {
        "notice": "Buyer confirms delivery and releases 50% of remaining"
      },
      "depositAndStartProduction()": {
        "notice": "Buyer deposits MON and starts production"
      },
      "finishProduction()": {
        "notice": "Seller marks production as finished"
      },
      "markShipped(string,string,string,string[])": {
        "notice": "Seller marks the item as shipped"
      },
      "sellerClaimFinalPayment()": {
        "notice": "Seller claims remaining funds if buyer doesn't complete or dispute within 14 days of delivery"
      }
    },
    "version": 1
  },
  "storageLayout": {
    "storage": [
      {
        "astId": 2410,
        "contract": "contracts/SupplyChainEscrow.sol:SupplyChainEscrow",
        "label": "_status",
        "offset": 0,
        "slot": "0",
        "type": "t_uint256"
      },
      {
        "astId": 4280,
        "contract": "contracts/SupplyChainEscrow.sol:SupplyChainEscrow",
        "label": "buyer",
        "offset": 0,
        "slot": "1",
        "type": "t_address"
      },
      {
        "astId": 4282,
        "contract": "contracts/SupplyChainEscrow.sol:SupplyChainEscrow",
        "label": "seller",
        "offset": 0,
        "slot": "2",
        "type": "t_address"
      },
      {
        "astId": 4284,
        "contract": "contracts/SupplyChainEscrow.sol:SupplyChainEscrow",
        "label": "arbitrator",
        "offset": 0,
        "slot": "3",
        "type": "t_address"
      },
      {
        "astId": 4286,
        "contract": "contracts/SupplyChainEscrow.sol:SupplyChainEscrow",
        "label": "factory",
        "offset": 0,
        "slot": "4",
        "type": "t_address"
      },
      {
        "astId": 4288,
        "contract": "contracts/SupplyChainEscrow.sol:SupplyChainEscrow",
        "label": "totalAmount",
        "offset": 0,
        "slot": "5",
        "type": "t_uint256"
      },
      {
        "astId": 4290,
        "contract": "contracts/SupplyChainEscrow.sol:SupplyChainEscrow",
        "label": "productionAmount",
        "offset": 0,
        "slot": "6",
        "type": "t_uint256"
      },
      {
        "astId": 4292,
        "contract": "contracts/SupplyChainEscrow.sol:SupplyChainEscrow",
        "label": "AfterDeliverAmount",
        "offset": 0,
        "slot": "7",
        "type": "t_uint256"
      },
      {
        "astId": 4294,
        "contract": "contracts/SupplyChainEscrow.sol:SupplyChainEscrow",
        "label": "remainingAmount",
        "offset": 0,
        "slot": "8",
        "type": "t_uint256"
      },
      {
        "astId": 4296,
        "contract": "contracts/SupplyChainEscrow.sol:SupplyChainEscrow",
        "label": "milestone1Pct",
        "offset": 0,
        "slot": "9",
        "type": "t_uint8"
      },
      {
        "astId": 4298,
        "contract": "contracts/SupplyChainEscrow.sol:SupplyChainEscrow",
        "label": "milestone2Pct",
        "offset": 1,
        "slot": "9",
        "type": "t_uint8"
      },
      {
        "astId": 4300,
        "contract": "contracts/SupplyChainEscrow.sol:SupplyChainEscrow",
        "label": "itemName",
        "offset": 0,
        "slot": "10",
        "type": "t_string_storage"
      },
      {
        "astId": 4302,
        "contract": "contracts/SupplyChainEscrow.sol:SupplyChainEscrow",
        "label": "quantity",
        "offset": 0,
        "slot": "11",
        "type": "t_uint256"
      },
      {
        "astId": 4304,
        "contract": "contracts/SupplyChainEscrow.sol:SupplyChainEscrow",
        "label": "deliveryDeadline",
        "offset": 0,
        "slot": "12",
        "type": "t_uint256"
      },
      {
        "astId": 4306,
        "contract": "contracts/SupplyChainEscrow.sol:SupplyChainEscrow",
        "label": "shippingProvider",
        "offset": 0,
        "slot": "13",
        "type": "t_string_storage"
      },
      {
        "astId": 4308,
        "contract": "contracts/SupplyChainEscrow.sol:SupplyChainEscrow",
        "label": "trackingNumber",
        "offset": 0,
        "slot": "14",
        "type": "t_string_storage"
      },
      {
        "astId": 4310,
        "contract": "contracts/SupplyChainEscrow.sol:SupplyChainEscrow",
        "label": "poCid",
        "offset": 0,
        "slot": "15",
        "type": "t_string_storage"
      },
      {
        "astId": 4312,
        "contract": "contracts/SupplyChainEscrow.sol:SupplyChainEscrow",
        "label": "shippingCid",
        "offset": 0,
        "slot": "16",
        "type": "t_string_storage"
      },
      {
        "astId": 4315,
        "contract": "contracts/SupplyChainEscrow.sol:SupplyChainEscrow",
        "label": "productionLogs",
        "offset": 0,
        "slot": "17",
        "type": "t_array(t_string_storage)dyn_storage"
      },
      {
        "astId": 4317,
        "contract": "contracts/SupplyChainEscrow.sol:SupplyChainEscrow",
        "label": "disputeReason",
        "offset": 0,
        "slot": "18",
        "type": "t_string_storage"
      },
      {
        "astId": 4319,
        "contract": "contracts/SupplyChainEscrow.sol:SupplyChainEscrow",
        "label": "deliveredAt",
        "offset": 0,
        "slot": "19",
        "type": "t_uint256"
      },
      {
        "astId": 4321,
        "contract": "contracts/SupplyChainEscrow.sol:SupplyChainEscrow",
        "label": "createdAt",
        "offset": 0,
        "slot": "20",
        "type": "t_uint256"
      },
      {
        "astId": 4323,
        "contract": "contracts/SupplyChainEscrow.sol:SupplyChainEscrow",
        "label": "deposited",
        "offset": 0,
        "slot": "21",
        "type": "t_bool"
      },
      {
        "astId": 4325,
        "contract": "contracts/SupplyChainEscrow.sol:SupplyChainEscrow",
        "label": "shipped",
        "offset": 1,
        "slot": "21",
        "type": "t_bool"
      },
      {
        "astId": 4327,
        "contract": "contracts/SupplyChainEscrow.sol:SupplyChainEscrow",
        "label": "delivered",
        "offset": 2,
        "slot": "21",
        "type": "t_bool"
      },
      {
        "astId": 4329,
        "contract": "contracts/SupplyChainEscrow.sol:SupplyChainEscrow",
        "label": "completed",
        "offset": 3,
        "slot": "21",
        "type": "t_bool"
      },
      {
        "astId": 4331,
        "contract": "contracts/SupplyChainEscrow.sol:SupplyChainEscrow",
        "label": "disputed",
        "offset": 4,
        "slot": "21",
        "type": "t_bool"
      },
      {
        "astId": 4333,
        "contract": "contracts/SupplyChainEscrow.sol:SupplyChainEscrow",
        "label": "sellerAccepted",
        "offset": 5,
        "slot": "21",
        "type": "t_bool"
      },
      {
        "astId": 4346,
        "contract": "contracts/SupplyChainEscrow.sol:SupplyChainEscrow",
        "label": "status",
        "offset": 6,
        "slot": "21",
        "type": "t_enum(Status)4343"
      }
    ],
    "types": {
      "t_address": {
        "encoding": "inplace",
        "label": "address",
        "numberOfBytes": "20"
      },
      "t_array(t_string_storage)dyn_storage": {
        "base": "t_string_storage",
        "encoding": "dynamic_array",
        "label": "string[]",
        "numberOfBytes": "32"
      },
      "t_bool": {
        "encoding": "inplace",
        "label": "bool",
        "numberOfBytes": "1"
      },
      "t_enum(Status)4343": {
        "encoding": "inplace",
        "label": "enum SupplyChainEscrow.Status",
        "numberOfBytes": "1"
      },
      "t_string_storage": {
        "encoding": "bytes",
        "label": "string",
        "numberOfBytes": "32"
      },
      "t_uint256": {
        "encoding": "inplace",
        "label": "uint256",
        "numberOfBytes": "32"
      },
      "t_uint8": {
        "encoding": "inplace",
        "label": "uint8",
        "numberOfBytes": "1"
      }
    }
  }
}