{
  "address": "0x718764c1648A2e79D5d934dC5725cB755eb84782",
  "abi": [
    {
      "inputs": [],
      "stateMutability": "nonpayable",
      "type": "constructor"
    },
    {
      "inputs": [],
      "name": "InvalidInitialization",
      "type": "error"
    },
    {
      "inputs": [],
      "name": "NotInitializing",
      "type": "error"
    },
    {
      "inputs": [],
      "name": "ReentrancyGuardReentrantCall",
      "type": "error"
    },
    {
      "anonymous": false,
      "inputs": [
        {
          "indexed": false,
          "internalType": "uint256",
          "name": "amount",
          "type": "uint256"
        }
      ],
      "name": "AfterDeliverPaymentReleased",
      "type": "event"
    },
    {
      "anonymous": false,
      "inputs": [
        {
          "indexed": true,
          "internalType": "address",
          "name": "buyer",
          "type": "address"
        }
      ],
      "name": "ContractCancelled",
      "type": "event"
    },
    {
      "anonymous": false,
      "inputs": [
        {
          "indexed": true,
          "internalType": "address",
          "name": "raisedBy",
          "type": "address"
        }
      ],
      "name": "DisputeRaised",
      "type": "event"
    },
    {
      "anonymous": false,
      "inputs": [
        {
          "indexed": false,
          "internalType": "bool",
          "name": "releasedToSeller",
          "type": "bool"
        }
      ],
      "name": "DisputeResolved",
      "type": "event"
    },
    {
      "anonymous": false,
      "inputs": [
        {
          "indexed": true,
          "internalType": "address",
          "name": "buyer",
          "type": "address"
        },
        {
          "indexed": true,
          "internalType": "address",
          "name": "seller",
          "type": "address"
        },
        {
          "indexed": false,
          "internalType": "address",
          "name": "escrowAddress",
          "type": "address"
        },
        {
          "indexed": false,
          "internalType": "uint256",
          "name": "totalAmount",
          "type": "uint256"
        },
        {
          "indexed": false,
          "internalType": "string",
          "name": "poCid",
          "type": "string"
        }
      ],
      "name": "EscrowCreated",
      "type": "event"
    },
    {
      "anonymous": false,
      "inputs": [
        {
          "indexed": false,
          "internalType": "uint256",
          "name": "amount",
          "type": "uint256"
        }
      ],
      "name": "FinalPaymentReleased",
      "type": "event"
    },
    {
      "anonymous": false,
      "inputs": [
        {
          "indexed": false,
          "internalType": "uint64",
          "name": "version",
          "type": "uint64"
        }
      ],
      "name": "Initialized",
      "type": "event"
    },
    {
      "anonymous": false,
      "inputs": [
        {
          "indexed": false,
          "internalType": "string",
          "name": "provider",
          "type": "string"
        },
        {
          "indexed": false,
          "internalType": "string",
          "name": "trackingNumber",
          "type": "string"
        }
      ],
      "name": "MarkedShipped",
      "type": "event"
    },
    {
      "anonymous": false,
      "inputs": [],
      "name": "ProductionFinished",
      "type": "event"
    },
    {
      "anonymous": false,
      "inputs": [
        {
          "indexed": false,
          "internalType": "uint256",
          "name": "amount",
          "type": "uint256"
        }
      ],
      "name": "ProductionPaymentReleased",
      "type": "event"
    },
    {
      "anonymous": false,
      "inputs": [
        {
          "indexed": false,
          "internalType": "string",
          "name": "cid",
          "type": "string"
        }
      ],
      "name": "ProductionUpdate",
      "type": "event"
    },
    {
      "anonymous": false,
      "inputs": [],
      "name": "SellerAccepted",
      "type": "event"
    },
    {
      "inputs": [],
      "name": "AfterDeliverAmount",
      "outputs": [
        {
          "internalType": "uint256",
          "name": "",
          "type": "uint256"
        }
      ],
      "stateMutability": "view",
      "type": "function"
    },
    {
      "inputs": [],
      "name": "BuyerclaimAfterDeadline",
      "outputs": [],
      "stateMutability": "nonpayable",
      "type": "function"
    },
    {
      "inputs": [],
      "name": "acceptContract",
      "outputs": [],
      "stateMutability": "nonpayable",
      "type": "function"
    },
    {
      "inputs": [],
      "name": "arbitrator",
      "outputs": [
        {
          "internalType": "address",
          "name": "",
          "type": "address"
        }
      ],
      "stateMutability": "view",
      "type": "function"
    },
    {
      "inputs": [],
      "name": "buyer",
      "outputs": [
        {
          "internalType": "address",
          "name": "",
          "type": "address"
        }
      ],
      "stateMutability": "view",
      "type": "function"
    },
    {
      "inputs": [],
      "name": "buyerCompletecontract",
      "outputs": [],
      "stateMutability": "nonpayable",
      "type": "function"
    },
    {
      "inputs": [],
      "name": "cancelContract",
      "outputs": [],
      "stateMutability": "nonpayable",
      "type": "function"
    },
    {
      "inputs": [],
      "name": "completed",
      "outputs": [
        {
          "internalType": "bool",
          "name": "",
          "type": "bool"
        }
      ],
      "stateMutability": "view",
      "type": "function"
    },
    {
      "inputs": [],
      "name": "confirmDelivery",
      "outputs": [],
      "stateMutability": "nonpayable",
      "type": "function"
    },
    {
      "inputs": [],
      "name": "createdAt",
      "outputs": [
        {
          "internalType": "uint256",
          "name": "",
          "type": "uint256"
        }
      ],
      "stateMutability": "view",
      "type": "function"
    },
    {
      "inputs": [],
      "name": "delivered",
      "outputs": [
        {
          "internalType": "bool",
          "name": "",
          "type": "bool"
        }
      ],
      "stateMutability": "view",
      "type": "function"
    },
    {
      "inputs": [],
      "name": "deliveredAt",
      "outputs": [
        {
          "internalType": "uint256",
          "name": "",
          "type": "uint256"
        }
      ],
      "stateMutability": "view",
      "type": "function"
    },
    {
      "inputs": [],
      "name": "deliveryDeadline",
      "outputs": [
        {
          "internalType": "uint256",
          "name": "",
          "type": "uint256"
        }
      ],
      "stateMutability": "view",
      "type": "function"
    },
    {
      "inputs": [],
      "name": "depositAndStartProduction",
      "outputs": [],
      "stateMutability": "payable",
      "type": "function"
    },
    {
      "inputs": [],
      "name": "deposited",
      "outputs": [
        {
          "internalType": "bool",
          "name": "",
          "type": "bool"
        }
      ],
      "stateMutability": "view",
      "type": "function"
    },
    {
      "inputs": [],
      "name": "disputeReason",
      "outputs": [
        {
          "internalType": "string",
          "name": "",
          "type": "string"
        }
      ],
      "stateMutability": "view",
      "type": "function"
    },
    {
      "inputs": [],
      "name": "disputed",
      "outputs": [
        {
          "internalType": "bool",
          "name": "",
          "type": "bool"
        }
      ],
      "stateMutability": "view",
      "type": "function"
    },
    {
      "inputs": [],
      "name": "factory",
      "outputs": [
        {
          "internalType": "address",
          "name": "",
          "type": "address"
        }
      ],
      "stateMutability": "view",
      "type": "function"
    },
    {
      "inputs": [],
      "name": "finishProduction",
      "outputs": [],
      "stateMutability": "nonpayable",
      "type": "function"
    },
    {
      "inputs": [],
      "name": "getProductionLogs",
      "outputs": [
        {
          "internalType": "string[]",
          "name": "",
          "type": "string[]"
        }
      ],
      "stateMutability": "view",
      "type": "function"
    },
    {
      "inputs": [
        {
          "internalType": "address",
          "name": "_buyer",
          "type": "address"
        },
        {
          "internalType": "address",
          "name": "_seller",
          "type": "address"
        },
        {
          "internalType": "address",
          "name": "_arbitrator",
          "type": "address"
        },
        {
          "internalType": "uint256",
          "name": "_totalAmount",
          "type": "uint256"
        },
        {
          "internalType": "string",
          "name": "_itemName",
          "type": "string"
        },
        {
          "internalType": "uint256",
          "name": "_quantity",
          "type": "uint256"
        },
        {
          "internalType": "uint256",
          "name": "_deliveryDurationSeconds",
          "type": "uint256"
        },
        {
          "internalType": "string",
          "name": "_poCid",
          "type": "string"
        }
      ],
      "name": "initialize",
      "outputs": [],
      "stateMutability": "nonpayable",
      "type": "function"
    },
    {
      "inputs": [],
      "name": "itemName",
      "outputs": [
        {
          "internalType": "string",
          "name": "",
          "type": "string"
        }
      ],
      "stateMutability": "view",
      "type": "function"
    },
    {
      "inputs": [
        {
          "internalType": "string",
          "name": "_shippingProvider",
          "type": "string"
        },
        {
          "internalType": "string",
          "name": "_trackingNumber",
          "type": "string"
        },
        {
          "internalType": "string",
          "name": "_shippingCid",
          "type": "string"
        },
        {
          "internalType": "string[]",
          "name": "_productionLogs",
          "type": "string[]"
        }
      ],
      "name": "markShipped",
      "outputs": [],
      "stateMutability": "nonpayable",
      "type": "function"
    },
    {
      "inputs": [],
      "name": "poCid",
      "outputs": [
        {
          "internalType": "string",
          "name": "",
          "type": "string"
        }
      ],
      "stateMutability": "view",
      "type": "function"
    },
    {
      "inputs": [],
      "name": "productionAmount",
      "outputs": [
        {
          "internalType": "uint256",
          "name": "",
          "type": "uint256"
        }
      ],
      "stateMutability": "view",
      "type": "function"
    },
    {
      "inputs": [
        {
          "internalType": "uint256",
          "name": "",
          "type": "uint256"
        }
      ],
      "name": "productionLogs",
      "outputs": [
        {
          "internalType": "string",
          "name": "",
          "type": "string"
        }
      ],
      "stateMutability": "view",
      "type": "function"
    },
    {
      "inputs": [],
      "name": "quantity",
      "outputs": [
        {
          "internalType": "uint256",
          "name": "",
          "type": "uint256"
        }
      ],
      "stateMutability": "view",
      "type": "function"
    },
    {
      "inputs": [
        {
          "internalType": "string",
          "name": "_reasonCid",
          "type": "string"
        }
      ],
      "name": "raiseDispute",
      "outputs": [],
      "stateMutability": "nonpayable",
      "type": "function"
    },
    {
      "inputs": [],
      "name": "remainingAmount",
      "outputs": [
        {
          "internalType": "uint256",
          "name": "",
          "type": "uint256"
        }
      ],
      "stateMutability": "view",
      "type": "function"
    },
    {
      "inputs": [
        {
          "internalType": "bool",
          "name": "releaseToSeller",
          "type": "bool"
        }
      ],
      "name": "resolveDispute",
      "outputs": [],
      "stateMutability": "nonpayable",
      "type": "function"
    },
    {
      "inputs": [],
      "name": "seller",
      "outputs": [
        {
          "internalType": "address",
          "name": "",
          "type": "address"
        }
      ],
      "stateMutability": "view",
      "type": "function"
    },
    {
      "inputs": [],
      "name": "sellerAccepted",
      "outputs": [
        {
          "internalType": "bool",
          "name": "",
          "type": "bool"
        }
      ],
      "stateMutability": "view",
      "type": "function"
    },
    {
      "inputs": [],
      "name": "sellerClaimAfterDeadline",
      "outputs": [],
      "stateMutability": "nonpayable",
      "type": "function"
    },
    {
      "inputs": [],
      "name": "sellerClaimFinalPayment",
      "outputs": [],
      "stateMutability": "nonpayable",
      "type": "function"
    },
    {
      "inputs": [],
      "name": "shipped",
      "outputs": [
        {
          "internalType": "bool",
          "name": "",
          "type": "bool"
        }
      ],
      "stateMutability": "view",
      "type": "function"
    },
    {
      "inputs": [],
      "name": "shippingCid",
      "outputs": [
        {
          "internalType": "string",
          "name": "",
          "type": "string"
        }
      ],
      "stateMutability": "view",
      "type": "function"
    },
    {
      "inputs": [],
      "name": "shippingProvider",
      "outputs": [
        {
          "internalType": "string",
          "name": "",
          "type": "string"
        }
      ],
      "stateMutability": "view",
      "type": "function"
    },
    {
      "inputs": [],
      "name": "status",
      "outputs": [
        {
          "internalType": "enum SupplyChainEscrow.Status",
          "name": "",
          "type": "uint8"
        }
      ],
      "stateMutability": "view",
      "type": "function"
    },
    {
      "inputs": [],
      "name": "totalAmount",
      "outputs": [
        {
          "internalType": "uint256",
          "name": "",
          "type": "uint256"
        }
      ],
      "stateMutability": "view",
      "type": "function"
    },
    {
      "inputs": [],
      "name": "trackingNumber",
      "outputs": [
        {
          "internalType": "string",
          "name": "",
          "type": "string"
        }
      ],
      "stateMutability": "view",
      "type": "function"
    },
    {
      "stateMutability": "payable",
      "type": "receive"
    }
  ],
  "transactionHash": "0x56451bb2d969390977c6dc603541e334fc7ca4d53df66db89e4c389d4b1fd66a",
  "args": [],
  "numDeployments": 1,
  "solcInputHash": "8eed30d25ae99d3e167e3533d4b21d68",
  "bytecode": "0x6080604052348015600f57600080fd5b506001600055601b601f565b60cf565b7ff0c57e16840df040f15088dc2f81fe391c3923bec73e23a9662efc9c229c6a00805468010000000000000000900460ff1615606e5760405163f92ee8a960e01b815260040160405180910390fd5b80546001600160401b039081161460cc5780546001600160401b0319166001600160401b0390811782556040519081527fc7f505b2f371ae2175ee4913f4499e1f2633a7b5936321eed1cdaeb6115181d29060200160405180910390a15b50565b612ae5806100de6000396000f3fe60806040526004361061023f5760003560e01c80637bf6c1041161012e578063ba446ae9116100ab578063dcdb98881161006f578063dcdb988814610628578063eda5998f1461063d578063eef49ee314610652578063f18a0f101461066c578063f439a3c31461068c57600080fd5b8063ba446ae91461059e578063bbdfbfba146105bd578063bcf53258146105dd578063c45a0155146105f2578063cf09e0d01461061257600080fd5b806393b891c7116100f257806393b891c71461051c5780639d9a7fe9146105315780639e7d9d2814610552578063a38c46a414610568578063a50a1fe61461058857600080fd5b80637bf6c104146104a75780637f676219146104bc57806389e1e82a146104c45780639317ec6f146104e45780639394acb51461050657600080fd5b8063526ff16f116101bc57806361b60f6b1161018057806361b60f6b1461040f578063646ce5a8146104325780636cc6cde1146104475780637150d8ae14610467578063725a3b4b1461048757600080fd5b8063526ff16f146103a557806356e444c7146103ba57806357549eb0146103cf5780635e10177b146103e5578063619d2671146103fa57600080fd5b80632b68bb2d116102035780632b68bb2d146103215780633d3ac5b6146103385780633fca8f621461034e57806340401fea1461037b578063416af8df1461039057600080fd5b80630695c46c1461024b57806308551a531461028157806317fc45e2146102b95780631a39d8ef146102dd578063200d2ed2146102f357600080fd5b3661024657005b600080fd5b34801561025757600080fd5b5060145461026c90600160201b900460ff1681565b60405190151581526020015b60405180910390f35b34801561028d57600080fd5b506002546102a1906001600160a01b031681565b6040516001600160a01b039091168152602001610278565b3480156102c557600080fd5b506102cf600a5481565b604051908152602001610278565b3480156102e957600080fd5b506102cf60055481565b3480156102ff57600080fd5b5060145461031490600160301b900460ff1681565b6040516102789190612310565b34801561032d57600080fd5b506103366106a1565b005b34801561034457600080fd5b506102cf60075481565b34801561035a57600080fd5b5061036e610369366004612338565b61080d565b6040516102789190612397565b34801561038757600080fd5b5061036e6108b9565b34801561039c57600080fd5b5061036e6108c6565b3480156103b157600080fd5b5061036e6108d3565b3480156103c657600080fd5b506103366108e0565b3480156103db57600080fd5b506102cf600b5481565b3480156103f157600080fd5b50610336610b33565b34801561040657600080fd5b50610336610d53565b34801561041b57600080fd5b5060145461026c9065010000000000900460ff1681565b34801561043e57600080fd5b5061036e610e7d565b34801561045357600080fd5b506003546102a1906001600160a01b031681565b34801561047357600080fd5b506001546102a1906001600160a01b031681565b34801561049357600080fd5b506103366104a2366004612466565b610e8a565b3480156104b357600080fd5b5061036e610f79565b610336610f86565b3480156104d057600080fd5b506103366104df3660046124a2565b61128c565b3480156104f057600080fd5b506104f961153d565b60405161027891906124c4565b34801561051257600080fd5b506102cf60065481565b34801561052857600080fd5b50610336611616565b34801561053d57600080fd5b5060145461026c906301000000900460ff1681565b34801561055e57600080fd5b506102cf60125481565b34801561057457600080fd5b50610336610583366004612529565b61172b565b34801561059457600080fd5b506102cf60085481565b3480156105aa57600080fd5b5060145461026c90610100900460ff1681565b3480156105c957600080fd5b5060145461026c9062010000900460ff1681565b3480156105e957600080fd5b506103366119a8565b3480156105fe57600080fd5b506004546102a1906001600160a01b031681565b34801561061e57600080fd5b506102cf60135481565b34801561063457600080fd5b5061036e611b8e565b34801561064957600080fd5b50610336611b9b565b34801561065e57600080fd5b5060145461026c9060ff1681565b34801561067857600080fd5b50610336610687366004612694565b611dc3565b34801561069857600080fd5b50610336612169565b6001546001600160a01b03163314806106c457506002546001600160a01b031633145b6107065760405162461bcd60e51b815260206004820152600e60248201526d139bdd08185d5d1a1bdc9a5e995960921b60448201526064015b60405180910390fd5b60145460ff161561074a5760405162461bcd60e51b815260206004820152600e60248201526d105b1c9958591e48199d5b99195960921b60448201526064016106fd565b6000601454600160301b900460ff16600881111561076a5761076a6122fa565b146107ca5760405162461bcd60e51b815260206004820152602a60248201527f43616e6e6f742063616e63656c206f6e6365206163636570746564206f7220696044820152696e2070726f677265737360b01b60648201526084016106fd565b6014805460ff60301b1916660800000000000017905560405133907f127a6f1a35dab59c491a32a71869783bdb5702256f5709cb1e60f322ac1529d490600090a2565b6010818154811061081d57600080fd5b9060005260206000200160009150905080546108389061274a565b80601f01602080910402602001604051908101604052809291908181526020018280546108649061274a565b80156108b15780601f10610886576101008083540402835291602001916108b1565b820191906000526020600020905b81548152906001019060200180831161089457829003601f168201915b505050505081565b600980546108389061274a565b600e80546108389061274a565b600d80546108389061274a565b6001546001600160a01b0316331461090a5760405162461bcd60e51b81526004016106fd90612784565b6109126122d0565b60145462010000900460ff166109635760405162461bcd60e51b8152602060048201526016602482015275125d195b481b9bdd081e595d0819195b1a5d995c995960521b60448201526064016106fd565b6014546301000000900460ff16156109bd5760405162461bcd60e51b815260206004820152601a60248201527f436f6e747261637420616c726561647920636f6d706c6574656400000000000060448201526064016106fd565b600880546000918290556014805466ff0000ff000000191666060000010000001790556002546040519192916001600160a01b039091169083908381818185875af1925050503d8060008114610a2f576040519150601f19603f3d011682016040523d82523d6000602084013e610a34565b606091505b5050905080610a855760405162461bcd60e51b815260206004820152601c60248201527f4661696c656420746f2073656e642066696e616c207061796d656e740000000060448201526064016106fd565b600480546001546040516378da4ce360e01b81526001600160a01b03928316936378da4ce393610aba931691600e91016127a7565b600060405180830381600087803b158015610ad457600080fd5b505af1158015610ae8573d6000803e3d6000fd5b505050507f38485e5f70532849a6ff078e9f0b0abdb13611aa6731e1fcf542912d6980efb282604051610b1d91815260200190565b60405180910390a15050610b316001600055565b565b6001546001600160a01b03163314610b5d5760405162461bcd60e51b81526004016106fd90612784565b610b656122d0565b601454600160201b900460ff1615610b8f5760405162461bcd60e51b81526004016106fd90612845565b601454610100900460ff16610bd45760405162461bcd60e51b815260206004820152600b60248201526a139bdd081cda1a5c1c195960aa1b60448201526064016106fd565b60145462010000900460ff1615610c215760405162461bcd60e51b8152602060048201526011602482015270105b1c9958591e4811195b1a5d995c9959607a1b60448201526064016106fd565b600060646005546032610c349190612883565b610c3e91906128a0565b6007819055600854909150610c549082906128c2565b600855601480544260125566ff000000ff0000191666050000000100001790556002546040516000916001600160a01b03169083908381818185875af1925050503d8060008114610cc1576040519150601f19603f3d011682016040523d82523d6000602084013e610cc6565b606091505b5050905080610d235760405162461bcd60e51b8152602060048201526024808201527f4661696c656420746f2073656e642061667465722064656c69766572207061796044820152631b595b9d60e21b60648201526084016106fd565b6040518281527f2dfdb966e7190b3f914db51ef79ecbb965b770a4c249fa92121a9f42f6be35fa90602001610b1d565b6002546001600160a01b03163314610d7d5760405162461bcd60e51b81526004016106fd906128d5565b6000601454600160301b900460ff166008811115610d9d57610d9d6122fa565b14610dea5760405162461bcd60e51b815260206004820152601f60248201527f416c7265616479206163636570746564206f7220696e2070726f67726573730060448201526064016106fd565b601354610dfa90620151806128f9565b421115610e395760405162461bcd60e51b815260206004820152600d60248201526c13d999995c88195e1c1a5c9959609a1b60448201526064016106fd565b6014805466ffff0000000000191666010100000000001790556040517fe265a59e0d8e68fca2a95c22cc164b1922c5d69f1a31b63a5c35d59af3fa032090600090a1565b600c80546108389061274a565b6001546001600160a01b0316331480610ead57506002546001600160a01b031633145b610eea5760405162461bcd60e51b815260206004820152600e60248201526d139bdd08185d5d1a1bdc9a5e995960921b60448201526064016106fd565b6014546301000000900460ff1615610f145760405162461bcd60e51b81526004016106fd9061290c565b6014805464ff000000001916600160201b1790556011610f348282612986565b506014805460ff60301b1916660700000000000017905560405133907f0b3cd97b16a08a5c77357c276d248827ad32dfd56060f7c55d6255537ba3d96290600090a250565b601180546108389061274a565b6001546001600160a01b03163314610fb05760405162461bcd60e51b81526004016106fd90612784565b610fb86122d0565b60145465010000000000900460ff166110135760405162461bcd60e51b815260206004820152601860248201527f53656c6c6572206d75737420616363657074206669727374000000000000000060448201526064016106fd565b60145460ff161561105a5760405162461bcd60e51b8152602060048201526011602482015270105b1c9958591e4819195c1bdcda5d1959607a1b60448201526064016106fd565b60055434146110a45760405162461bcd60e51b815260206004820152601660248201527514d95b9908195e1858dd081d1bdd185b105b5bdd5b9d60521b60448201526064016106fd565b6001601454600160301b900460ff1660088111156110c4576110c46122fa565b146111115760405162461bcd60e51b815260206004820181905260248201527f4d7573742062652061636365707465642062792073656c6c657220666972737460448201526064016106fd565b60135461112190620151806128f9565b4211156111605760405162461bcd60e51b815260206004820152600d60248201526c13d999995c88195e1c1a5c9959609a1b60448201526064016106fd565b60006064600554601e6111739190612883565b61117d91906128a0565b60068190556005549091506111939082906128c2565b6008556014805466ff0000000000ff191666020000000000011790556002546040516000916001600160a01b03169083908381818185875af1925050503d80600081146111fc576040519150601f19603f3d011682016040523d82523d6000602084013e611201565b606091505b505090508061125c5760405162461bcd60e51b815260206004820152602160248201527f4661696c656420746f2073656e642070726f64756374696f6e207061796d656e6044820152601d60fa1b60648201526084016106fd565b6040518281527f9a44608bcd034a9075640dd9f85f303467fa2fb447f3220e8268ab43f8e062eb90602001610b1d565b6003546001600160a01b031633146112d75760405162461bcd60e51b815260206004820152600e60248201526d2737ba1030b93134ba3930ba37b960911b60448201526064016106fd565b6112df6122d0565b601454600160201b900460ff166113255760405162461bcd60e51b815260206004820152600a6024820152694e6f206469737075746560b01b60448201526064016106fd565b6008548061136b5760405162461bcd60e51b81526020600482015260136024820152724e6f2066756e647320746f2072656c6561736560681b60448201526064016106fd565b60006008556014805464ff00000000191690558115611446576014805466ff0000ff000000191666060000010000001790556002546040516000916001600160a01b03169083908381818185875af1925050503d80600081146113ea576040519150601f19603f3d011682016040523d82523d6000602084013e6113ef565b606091505b50509050806114405760405162461bcd60e51b815260206004820152601860248201527f4661696c656420746f2073656e6420746f2073656c6c6572000000000000000060448201526064016106fd565b506114fa565b6014805460ff60301b191666080000000000001790556001546040516000916001600160a01b03169083908381818185875af1925050503d80600081146114a9576040519150601f19603f3d011682016040523d82523d6000602084013e6114ae565b606091505b50509050806114f85760405162461bcd60e51b81526020600482015260166024820152752330b4b632b2103a37903932b33ab73210313abcb2b960511b60448201526064016106fd565b505b60405182151581527f8015c5005d9ad5d85ca80d3f894f08e0159277704c54166e5cff108800fa80cd9060200160405180910390a15061153a6001600055565b50565b60606010805480602002602001604051908101604052809291908181526020016000905b8282101561160d5783829060005260206000200180546115809061274a565b80601f01602080910402602001604051908101604052809291908181526020018280546115ac9061274a565b80156115f95780601f106115ce576101008083540402835291602001916115f9565b820191906000526020600020905b8154815290600101906020018083116115dc57829003601f168201915b505050505081526020019060010190611561565b50505050905090565b6002546001600160a01b031633146116405760405162461bcd60e51b81526004016106fd906128d5565b601454600160201b900460ff161561166a5760405162461bcd60e51b81526004016106fd90612845565b6002601454600160301b900460ff16600881111561168a5761168a6122fa565b146116ea5760405162461bcd60e51b815260206004820152602a60248201527f50726f64756374696f6e206e6f742073746172746564206f7220616c726561646044820152691e48199a5b9a5cda195960b21b60648201526084016106fd565b6014805460ff60301b191666030000000000001790556040517f781e2ceec09322c77ecfac5ec2a4060d14c6ce905d733b5313732be934f439f790600090a1565b6002546001600160a01b031633146117555760405162461bcd60e51b81526004016106fd906128d5565b601454600160201b900460ff161561177f5760405162461bcd60e51b81526004016106fd90612845565b6003601454600160301b900460ff16600881111561179f5761179f6122fa565b146117f65760405162461bcd60e51b815260206004820152602160248201527f50726f64756374696f6e206d7573742062652066696e697368656420666972736044820152601d60fa1b60648201526084016106fd565b601454610100900460ff16156118405760405162461bcd60e51b815260206004820152600f60248201526e105b1c9958591e481cda1a5c1c1959608a1b60448201526064016106fd565b60008351116118855760405162461bcd60e51b8152602060048201526011602482015270151c9858dada5b99c81c995c5d5a5c9959607a1b60448201526064016106fd565b600c6118918582612986565b50600d61189e8482612986565b50600f6118ab8382612986565b5060005b815181101561194e5760108282815181106118cc576118cc612a44565b602090810291909101810151825460018101845560009384529190922001906118f59082612986565b507f2f94469c930f78239164949b76d456603971fe911a8383b6007eb673c1b51e0d82828151811061192957611929612a44565b602002602001015160405161193e9190612397565b60405180910390a16001016118af565b506014805466ff00000000ff00191666040000000001001790556040517fb6462dcdfb1c84065533d5eef8ad89ff3d6755d584c1e1173765287462f2f6289061199a9086908690612a5a565b60405180910390a150505050565b6002546001600160a01b031633146119d25760405162461bcd60e51b81526004016106fd906128d5565b601454600160201b900460ff16156119fc5760405162461bcd60e51b81526004016106fd90612845565b611a046122d0565b60145462010000900460ff16611a4c5760405162461bcd60e51b815260206004820152600d60248201526c139bdd0819195b1a5d995c9959609a1b60448201526064016106fd565b6014546301000000900460ff1615611a765760405162461bcd60e51b81526004016106fd9061290c565b601254611a8690621275006128f9565b4211611ad45760405162461bcd60e51b815260206004820152601860248201527f496e7370656374696f6e20706572696f6420616374697665000000000000000060448201526064016106fd565b600880546000918290556014805466ff0000ff000000191666060000010000001790556002546040519192916001600160a01b039091169083908381818185875af1925050503d8060008114611b46576040519150601f19603f3d011682016040523d82523d6000602084013e611b4b565b606091505b5050905080610a855760405162461bcd60e51b815260206004820152600f60248201526e151c985b9cd9995c8819985a5b1959608a1b60448201526064016106fd565b600f80546108389061274a565b6002546001600160a01b03163314611bc55760405162461bcd60e51b81526004016106fd906128d5565b601454600160201b900460ff1615611bef5760405162461bcd60e51b81526004016106fd90612845565b611bf76122d0565b601454610100900460ff16611c3c5760405162461bcd60e51b815260206004820152600b60248201526a139bdd081cda1a5c1c195960aa1b60448201526064016106fd565b6014546301000000900460ff1615611c665760405162461bcd60e51b81526004016106fd9061290c565b601454600160201b900460ff1615611cb05760405162461bcd60e51b815260206004820152600d60248201526c556e646572206469737075746560981b60448201526064016106fd565b600b544211611cf75760405162461bcd60e51b8152602060048201526013602482015272111958591b1a5b99481b9bdd081c185cdcd959606a1b60448201526064016106fd565b600880546000918290556014805466ff0000ff000000191666060000010000001790556002546040519192916001600160a01b039091169083905b60006040518083038185875af1925050503d8060008114611d6f576040519150601f19603f3d011682016040523d82523d6000602084013e611d74565b606091505b5050905080611db75760405162461bcd60e51b815260206004820152600f60248201526e151c985b9cd9995c8819985a5b1959608a1b60448201526064016106fd565b5050610b316001600055565b7ff0c57e16840df040f15088dc2f81fe391c3923bec73e23a9662efc9c229c6a008054600160401b810460ff1615906001600160401b0316600081158015611e085750825b90506000826001600160401b03166001148015611e245750303b155b905081158015611e32575080155b15611e505760405163f92ee8a960e01b815260040160405180910390fd5b845467ffffffffffffffff191660011785558315611e7a57845460ff60401b1916600160401b1785555b6001600160a01b038d16611ec05760405162461bcd60e51b815260206004820152600d60248201526c24b73b30b634b210313abcb2b960991b60448201526064016106fd565b6001600160a01b038c16611f075760405162461bcd60e51b815260206004820152600e60248201526d24b73b30b634b21039b2b63632b960911b60448201526064016106fd565b60008a11611f4c5760405162461bcd60e51b81526020600482015260126024820152710416d6f756e74206d757374206265203e20360741b60448201526064016106fd565b60008811611f935760405162461bcd60e51b815260206004820152601460248201527305175616e74697479206d757374206265203e20360641b60448201526064016106fd565b60008711611fd65760405162461bcd60e51b815260206004820152601060248201526f24b73b30b634b210323ab930ba34b7b760811b60448201526064016106fd565b8c600160006101000a8154816001600160a01b0302191690836001600160a01b031602179055508b600260006101000a8154816001600160a01b0302191690836001600160a01b031602179055508a600360006101000a8154816001600160a01b0302191690836001600160a01b0316021790555033600460006101000a8154816001600160a01b0302191690836001600160a01b031602179055508960058190555060006006819055508960088190555088600990816120979190612986565b50600a8890556120a787426128f9565b600b5542601355600e6120ba8782612986565b506014805460ff60301b191690556040516001600160a01b03808e1691908f16907fce1e6bf60de0cb83b0dc94c84bb59699ad0638667144f8d343087a248d77d6489061210c9030908f908c90612a88565b60405180910390a3831561215a57845460ff60401b19168555604051600181527fc7f505b2f371ae2175ee4913f4499e1f2633a7b5936321eed1cdaeb6115181d29060200160405180910390a15b50505050505050505050505050565b6001546001600160a01b031633146121935760405162461bcd60e51b81526004016106fd90612784565b601454600160201b900460ff16156121bd5760405162461bcd60e51b81526004016106fd90612845565b6121c56122d0565b600b54421161220c5760405162461bcd60e51b8152602060048201526013602482015272111958591b1a5b99481b9bdd081c185cdcd959606a1b60448201526064016106fd565b601454610100900460ff16156122565760405162461bcd60e51b815260206004820152600f60248201526e105b1c9958591e481cda1a5c1c1959608a1b60448201526064016106fd565b60145460ff166122955760405162461bcd60e51b815260206004820152600a602482015269139bdd08199d5b99195960b21b60448201526064016106fd565b60088054600082556014805491929160ff60301b1916600160301b8302179055506001546040516000916001600160a01b0316908390611d32565b6002600054036122f357604051633ee5aeb560e01b815260040160405180910390fd5b6002600055565b634e487b7160e01b600052602160045260246000fd5b602081016009831061233257634e487b7160e01b600052602160045260246000fd5b91905290565b60006020828403121561234a57600080fd5b5035919050565b6000815180845260005b818110156123775760208185018101518683018201520161235b565b506000602082860101526020601f19601f83011685010191505092915050565b6020815260006123aa6020830184612351565b9392505050565b634e487b7160e01b600052604160045260246000fd5b604051601f8201601f191681016001600160401b03811182821017156123ef576123ef6123b1565b604052919050565b600082601f83011261240857600080fd5b81356001600160401b03811115612421576124216123b1565b612434601f8201601f19166020016123c7565b81815284602083860101111561244957600080fd5b816020850160208301376000918101602001919091529392505050565b60006020828403121561247857600080fd5b81356001600160401b0381111561248e57600080fd5b61249a848285016123f7565b949350505050565b6000602082840312156124b457600080fd5b813580151581146123aa57600080fd5b6000602082016020835280845180835260408501915060408160051b86010192506020860160005b8281101561251d57603f19878603018452612508858351612351565b945060209384019391909101906001016124ec565b50929695505050505050565b6000806000806080858703121561253f57600080fd5b84356001600160401b0381111561255557600080fd5b612561878288016123f7565b94505060208501356001600160401b0381111561257d57600080fd5b612589878288016123f7565b93505060408501356001600160401b038111156125a557600080fd5b6125b1878288016123f7565b92505060608501356001600160401b038111156125cd57600080fd5b8501601f810187136125de57600080fd5b80356001600160401b038111156125f7576125f76123b1565b8060051b612607602082016123c7565b9182526020818401810192908101908a84111561262357600080fd5b6020850192505b838310156126695782356001600160401b0381111561264857600080fd5b6126578c6020838901016123f7565b8352506020928301929091019061262a565b979a9699509497505050505050565b80356001600160a01b038116811461268f57600080fd5b919050565b600080600080600080600080610100898b0312156126b157600080fd5b6126ba89612678565b97506126c860208a01612678565b96506126d660408a01612678565b95506060890135945060808901356001600160401b038111156126f857600080fd5b6127048b828c016123f7565b94505060a0890135925060c0890135915060e08901356001600160401b0381111561272e57600080fd5b61273a8b828c016123f7565b9150509295985092959890939650565b600181811c9082168061275e57607f821691505b60208210810361277e57634e487b7160e01b600052602260045260246000fd5b50919050565b6020808252600990820152682737ba10313abcb2b960b91b604082015260600190565b6001600160a01b038316815260406020820152815460009081906127ca8161274a565b80604086015260018216600081146127e9576001811461280557612839565b60ff1983166060870152606082151560051b8701019350612839565b86600052602060002060005b8381101561283057815488820160600152600190910190602001612811565b87016060019450505b50919695505050505050565b6020808252600e908201526d446973707574652061637469766560901b604082015260600190565b634e487b7160e01b600052601160045260246000fd5b808202811582820484141761289a5761289a61286d565b92915050565b6000826128bd57634e487b7160e01b600052601260045260246000fd5b500490565b8181038181111561289a5761289a61286d565b6020808252600a90820152692737ba1039b2b63632b960b11b604082015260600190565b8082018082111561289a5761289a61286d565b602080825260119082015270105b1c9958591e4818dbdb5c1b195d1959607a1b604082015260600190565b601f82111561298157806000526020600020601f840160051c8101602085101561295e5750805b601f840160051c820191505b8181101561297e576000815560010161296a565b50505b505050565b81516001600160401b0381111561299f5761299f6123b1565b6129b3816129ad845461274a565b84612937565b6020601f8211600181146129e757600083156129cf5750848201515b600019600385901b1c1916600184901b17845561297e565b600084815260208120601f198516915b82811015612a1757878501518255602094850194600190920191016129f7565b5084821015612a355786840151600019600387901b60f8161c191681555b50505050600190811b01905550565b634e487b7160e01b600052603260045260246000fd5b604081526000612a6d6040830185612351565b8281036020840152612a7f8185612351565b95945050505050565b60018060a01b0384168152826020820152606060408201526000612a7f606083018461235156fea2646970667358221220e3c7a3daac732f70d1f132a12f9697978b8e76e8a3a87ccdc9b719c63f373db364736f6c634300081e0033",
  "devdoc": {
    "errors": {
      "InvalidInitialization()": [
        {
          "details": "The contract is already initialized."
        }
      ],
      "NotInitializing()": [
        {
          "details": "The contract is not initializing."
        }
      ],
      "ReentrancyGuardReentrantCall()": [
        {
          "details": "Unauthorized reentrant call."
        }
      ]
    },
    "events": {
      "Initialized(uint64)": {
        "details": "Triggered when the contract has been initialized or reinitialized."
      }
    },
    "kind": "dev",
    "methods": {
      "constructor": {
        "custom:oz-upgrades-unsafe-allow": "constructor"
      },
      "initialize(address,address,address,uint256,string,uint256,uint256,string)": {
        "params": {
          "_deliveryDurationSeconds": "Delivery duration in seconds from now"
        }
      }
    },
    "version": 1
  },
  "userdoc": {
    "kind": "user",
    "methods": {
      "acceptContract()": {
        "notice": "Seller accepts the terms and PO"
      },
      "buyerCompletecontract()": {
        "notice": "Buyer Completes contract after checking the machine/item are working "
      },
      "confirmDelivery()": {
        "notice": "Buyer confirms delivery and releases 50% of remaining"
      },
      "depositAndStartProduction()": {
        "notice": "Buyer deposits MON and starts production"
      },
      "finishProduction()": {
        "notice": "Seller marks production as finished"
      },
      "markShipped(string,string,string,string[])": {
        "notice": "Seller marks the item as shipped"
      },
      "sellerClaimFinalPayment()": {
        "notice": "Seller claims remaining funds if buyer doesn't complete or dispute within 14 days of delivery"
      }
    },
    "version": 1
  },
  "storageLayout": {
    "storage": [
      {
        "astId": 2410,
        "contract": "contracts/SupplyChainEscrow.sol:SupplyChainEscrow",
        "label": "_status",
        "offset": 0,
        "slot": "0",
        "type": "t_uint256"
      },
      {
        "astId": 4274,
        "contract": "contracts/SupplyChainEscrow.sol:SupplyChainEscrow",
        "label": "buyer",
        "offset": 0,
        "slot": "1",
        "type": "t_address"
      },
      {
        "astId": 4276,
        "contract": "contracts/SupplyChainEscrow.sol:SupplyChainEscrow",
        "label": "seller",
        "offset": 0,
        "slot": "2",
        "type": "t_address"
      },
      {
        "astId": 4278,
        "contract": "contracts/SupplyChainEscrow.sol:SupplyChainEscrow",
        "label": "arbitrator",
        "offset": 0,
        "slot": "3",
        "type": "t_address"
      },
      {
        "astId": 4280,
        "contract": "contracts/SupplyChainEscrow.sol:SupplyChainEscrow",
        "label": "factory",
        "offset": 0,
        "slot": "4",
        "type": "t_address"
      },
      {
        "astId": 4282,
        "contract": "contracts/SupplyChainEscrow.sol:SupplyChainEscrow",
        "label": "totalAmount",
        "offset": 0,
        "slot": "5",
        "type": "t_uint256"
      },
      {
        "astId": 4284,
        "contract": "contracts/SupplyChainEscrow.sol:SupplyChainEscrow",
        "label": "productionAmount",
        "offset": 0,
        "slot": "6",
        "type": "t_uint256"
      },
      {
        "astId": 4286,
        "contract": "contracts/SupplyChainEscrow.sol:SupplyChainEscrow",
        "label": "AfterDeliverAmount",
        "offset": 0,
        "slot": "7",
        "type": "t_uint256"
      },
      {
        "astId": 4288,
        "contract": "contracts/SupplyChainEscrow.sol:SupplyChainEscrow",
        "label": "remainingAmount",
        "offset": 0,
        "slot": "8",
        "type": "t_uint256"
      },
      {
        "astId": 4290,
        "contract": "contracts/SupplyChainEscrow.sol:SupplyChainEscrow",
        "label": "itemName",
        "offset": 0,
        "slot": "9",
        "type": "t_string_storage"
      },
      {
        "astId": 4292,
        "contract": "contracts/SupplyChainEscrow.sol:SupplyChainEscrow",
        "label": "quantity",
        "offset": 0,
        "slot": "10",
        "type": "t_uint256"
      },
      {
        "astId": 4294,
        "contract": "contracts/SupplyChainEscrow.sol:SupplyChainEscrow",
        "label": "deliveryDeadline",
        "offset": 0,
        "slot": "11",
        "type": "t_uint256"
      },
      {
        "astId": 4296,
        "contract": "contracts/SupplyChainEscrow.sol:SupplyChainEscrow",
        "label": "shippingProvider",
        "offset": 0,
        "slot": "12",
        "type": "t_string_storage"
      },
      {
        "astId": 4298,
        "contract": "contracts/SupplyChainEscrow.sol:SupplyChainEscrow",
        "label": "trackingNumber",
        "offset": 0,
        "slot": "13",
        "type": "t_string_storage"
      },
      {
        "astId": 4300,
        "contract": "contracts/SupplyChainEscrow.sol:SupplyChainEscrow",
        "label": "poCid",
        "offset": 0,
        "slot": "14",
        "type": "t_string_storage"
      },
      {
        "astId": 4302,
        "contract": "contracts/SupplyChainEscrow.sol:SupplyChainEscrow",
        "label": "shippingCid",
        "offset": 0,
        "slot": "15",
        "type": "t_string_storage"
      },
      {
        "astId": 4305,
        "contract": "contracts/SupplyChainEscrow.sol:SupplyChainEscrow",
        "label": "productionLogs",
        "offset": 0,
        "slot": "16",
        "type": "t_array(t_string_storage)dyn_storage"
      },
      {
        "astId": 4307,
        "contract": "contracts/SupplyChainEscrow.sol:SupplyChainEscrow",
        "label": "disputeReason",
        "offset": 0,
        "slot": "17",
        "type": "t_string_storage"
      },
      {
        "astId": 4309,
        "contract": "contracts/SupplyChainEscrow.sol:SupplyChainEscrow",
        "label": "deliveredAt",
        "offset": 0,
        "slot": "18",
        "type": "t_uint256"
      },
      {
        "astId": 4311,
        "contract": "contracts/SupplyChainEscrow.sol:SupplyChainEscrow",
        "label": "createdAt",
        "offset": 0,
        "slot": "19",
        "type": "t_uint256"
      },
      {
        "astId": 4313,
        "contract": "contracts/SupplyChainEscrow.sol:SupplyChainEscrow",
        "label": "deposited",
        "offset": 0,
        "slot": "20",
        "type": "t_bool"
      },
      {
        "astId": 4315,
        "contract": "contracts/SupplyChainEscrow.sol:SupplyChainEscrow",
        "label": "shipped",
        "offset": 1,
        "slot": "20",
        "type": "t_bool"
      },
      {
        "astId": 4317,
        "contract": "contracts/SupplyChainEscrow.sol:SupplyChainEscrow",
        "label": "delivered",
        "offset": 2,
        "slot": "20",
        "type": "t_bool"
      },
      {
        "astId": 4319,
        "contract": "contracts/SupplyChainEscrow.sol:SupplyChainEscrow",
        "label": "completed",
        "offset": 3,
        "slot": "20",
        "type": "t_bool"
      },
      {
        "astId": 4321,
        "contract": "contracts/SupplyChainEscrow.sol:SupplyChainEscrow",
        "label": "disputed",
        "offset": 4,
        "slot": "20",
        "type": "t_bool"
      },
      {
        "astId": 4323,
        "contract": "contracts/SupplyChainEscrow.sol:SupplyChainEscrow",
        "label": "sellerAccepted",
        "offset": 5,
        "slot": "20",
        "type": "t_bool"
      },
      {
        "astId": 4336,
        "contract": "contracts/SupplyChainEscrow.sol:SupplyChainEscrow",
        "label": "status",
        "offset": 6,
        "slot": "20",
        "type": "t_enum(Status)4333"
      }
    ],
    "types": {
      "t_address": {
        "encoding": "inplace",
        "label": "address",
        "numberOfBytes": "20"
      },
      "t_array(t_string_storage)dyn_storage": {
        "base": "t_string_storage",
        "encoding": "dynamic_array",
        "label": "string[]",
        "numberOfBytes": "32"
      },
      "t_bool": {
        "encoding": "inplace",
        "label": "bool",
        "numberOfBytes": "1"
      },
      "t_enum(Status)4333": {
        "encoding": "inplace",
        "label": "enum SupplyChainEscrow.Status",
        "numberOfBytes": "1"
      },
      "t_string_storage": {
        "encoding": "bytes",
        "label": "string",
        "numberOfBytes": "32"
      },
      "t_uint256": {
        "encoding": "inplace",
        "label": "uint256",
        "numberOfBytes": "32"
      }
    }
  }
}